:020000040800F2
:10000000B1AA010000000000000000000000000094
:1000100000000000000000000000000000000000E0
:1000200000000000000000000000000000000000D0
:1000300000000000000000000000000000000000C0
:1000400000000000000000000000000000000000B0
:1000500000000000000000000000000000000000A0
:100060000000000000000000000000000000000090
:100070000000000000000000000000000000000080
:100080000000000000000000000000000000000070
:100090000000000000000000000000000000000060
:1000A0000000000000000000000000000000000050
:1000B0000000000000000000000000000000000040
:1000C0000000000000000000000000000000000030
:1000D0000000000000000000000000000000000020
:1000E0000000000000000000000000000000000010
:1000F0000000000000000000000000000000000000
:1001000000000000000000000000000000000000EF
:1001100000000000000000000000000000000000DF
:1001200000000000000000000000000000000000CF
:1001300000000000000000000000000000000000BF
:1001400000000000000000000000000000000000AF
:100150000000000000000000000000007370043088
:10016000170500001305C5FF8545F605637BB5003F
:1001700089816378B500170500001305C5002E9529
:1001800002859302002073A0027D970200009382F3
:1001900062E77390723097920000938262C273900C
:1001A000C27E73E0C07E979200009382A2B97390E2
:1001B0005230970100189381616C17810018130168
:1001C00061E417A500001305A504970500189385A1
:1001D00065E3170600181306A6EB63FAC500832231
:1001E000050023A0550011059105E3EAC5FE17059A
:1001F00000181305E5E99385818E6377B500232008
:1002000005001105E36DB5FE73F0023217A500007D
:100210001305C59DEF90701AEF9070200145814540
:10022000EF70C01A6F90101A01A073E00232828042
:0802300073F00232828000002D
:1002400000000000000000000000000000000000AE
:10025000000000000000000000000000000000009E
:10026000000000000000000000000000000000008E
:1002700000008001800180018001800180018001F7
:100280008001800180018001800180010000000068
:10029000800180010000000000000000000000005C
:1002A00000000000CC00CC00CC00CC00CC00CC0086
:1002B000000000000000000000000000000000003E
:1002C000000000000000000000000000000000002E
:1002D000000000000000000000000000600C600C46
:1002E000600C30063006FE1FFE1F3006380718036C
:1002F000FE1FFE1F180318038C018C018C010000E7
:1003000000008000E003F80F9C0E8C1C8C188C0001
:100310009800F801E007800E801C8C188C189C183F
:10032000B80CF00FE0038000800000000000000027
:100330000000000000000E181B0C110C1106110625
:10034000110311039B018E01C038C06C60446044EE
:10035000304430441844186C0C3800000000000091
:100360000000E001F0033807180618063003F0011A
:10037000F000F8009C310E33061E061C061C063FDA
:10038000FC73F021000000000000000000000000ED
:10039000000000000C000C000C000C000C000C0015
:1003A000000000000000000000000000000000004D
:1003B000000000000000000000000000000000003D
:1003C0000000000200038001C000C0006000600067
:1003D000300030003000300030003000300030009D
:1003E00060006000C000C000800100030002000047
:1003F000000020006000C0008001800100030003B5
:1004000000060006000600060006000600060006BC
:100410000003000380018001C00060002000000094
:10042000000000000000000000000000C000C0004C
:10043000D806F807E001300338070000000000008C
:1004400000000000000000000000000000000000AC
:10045000000000000000000000000000800180019A
:10046000800180018001FC3FFC3F80018001800110
:10047000800180010000000000000000000000007A
:10048000000000000000000000000000000000006C
:10049000000000000000000000000000000000005C
:1004A00000008001800100010001800000000000C8
:1004B000000000000000000000000000000000003C
:1004C0000000000000000000E007E007000000005E
:1004D000000000000000000000000000000000001C
:1004E000000000000000000000000000000000000C
:1004F00000000000000000000000000000000000FC
:100500000000C000C000000000000000000000006B
:100510000000000C000C00060006000600030003AB
:1005200000038003800180018001C000C000C00082
:1005300060006000000000000000000000000000FB
:100540000000E003F007380E180C0C180C180C18FB
:100550000C180C180C180C180C180C18180C380E59
:10056000F007E003000000000000000000000000B1
:10057000000000018001C001F001980188018001A4
:100580008001800180018001800180018001800163
:100590008001800100000000000000000000000059
:1005A0000000E003F80F180C0C180C1800180018C5
:1005B000000C000600038001C0006000300018003D
:1005C000FC1FFC1F000000000000000000000000F5
:1005D0000000E001F807180E0C0C0C0C000C0006D3
:1005E000C003C007000C001800180C180C18180CD9
:1005F000F807E00300000000000000000000000019
:100600000000000C000E000F000F800DC00C600CED
:10061000600C300C180C0C0CFC3FFC3F000C000C68
:10062000000C000C000000000000000000000000B2
:100630000000F80FF80F180018000C00EC03FC077E
:100640001C0E001C0018001800180C181C0C180EAA
:10065000F807E003000000000000000000000000B8
:100660000000C007F00F381C181818000C00CC034D
:10067000EC0F3C0E1C1C0C180C180C18181C380E17
:10068000F007E00300000000000000000000000090
:100690000000FC1FFC1F000C000600060003800386
:1006A0008001C001C000E000600060007000300008
:1006B00030003000000000000000000000000000DA
:1006C0000000E003F007380E180C180C180C380660
:1006D000F007F007180C0C180C180C180C18380C34
:1006E000F80FE00300000000000000000000000020
:1006F0000000E003F007380E1C0C0C180C180C1846
:100700001C1C381EF81BE0190018000C000C1C0EF5
:10071000F807F001000000000000000000000000E9
:1007200000000000000000000000000080018001C7
:1007300000000000000000000000000000000000B9
:1007400080018001000000000000000000000000A7
:100750000000000000000000000000008001800197
:100760000000000000000000000000000000000089
:1007700080018001000100018000000000000000F5
:100780000000000000000000000000000000000069
:100790000010001C800FE003F8001800F800E003D0
:1007A000800F001C0010000000000000000000008E
:1007B0000000000000000000000000000000000039
:1007C000F81F000000000000F81F000000000000FB
:1007D0000000000000000000000000000000000019
:1007E0000000000000000000000000000000000009
:1007F00008003800F001C007001F0018001FC007E4
:10080000F0013800080000000000000000000000B7
:100810000000E003F80F180C0C180C180018000C5E
:10082000000600038001C000C000C00000000000FE
:10083000C000C00000000000000000000000000038
:1008400000000000E00718180420C229224A1144C1
:1008500009440944094409221113E20C024004200E
:100860001818E00700000000000000000000000071
:10087000000080038003C006C006C006600C600C48
:10088000301830183018F83FF83F1C700C600C60BE
:1008900006C006C0000000000000000000000000CC
:1008A0000000FC03FC0F0C0C0C180C180C180C0CA2
:1008B000FC07FC0F0C180C300C300C300C300C18F2
:1008C000FC1FFC070000000000000000000000000A
:1008D0000000C007F01F38381C300C70066006009E
:1008E0000600060006000600060006600C701C30BC
:1008F000F01FE00700000000000000000000000002
:100900000000FE03FE0F060E06180618063006301D
:100910000630063006300630063006180618060E79
:10092000FE0FFE03000000000000000000000000B9
:100930000000FC3FFC3F0C000C000C000C000C0005
:10094000FC1FFC1F0C000C000C000C000C000C0029
:10095000FC3FFC3F00000000000000000000000021
:100960000000F83FF83F18001800180018001800A1
:10097000F81FF81F180018001800180018001800B9
:100980001800180000000000000000000000000037
:100990000000E00FF83F3C780E6006E007C003005F
:1009A000030003FE03FE03C007C006C00EC03CF0F8
:1009B000F83FE00F00000000000000000000000011
:1009C00000000C300C300C300C300C300C300C3083
:1009D000FC3FFC3F0C300C300C300C300C300C3039
:1009E0000C300C300000000000000000000000008F
:1009F0000000800180018001800180018001800170
:100A000080018001800180018001800180018001DE
:100A100080018001000000000000000000000000D4
:100A2000000000060006000600060006000600069C
:100A3000000600060006000600061806180638071D
:100A4000F003E001000000000000000000000000D2
:100A5000000006300618060C060606038601C600CE
:100A600066007600DE008E0106030606060C0618F8
:100A700006300660000000000000000000000000DA
:100A800000001800180018001800180018001800BE
:100A90001800180018001800180018001800180096
:100AA000F81FF81F00000000000000000000000018
:100AB00000000EE01EF01EF01EF036D836D836D8F4
:100AC00036D866CC66CC66CCC6C6C6C6C6C6C6C652
:100AD00086C386C300000000000000000000000084
:100AE00000000C301C303C303C306C306C30CC3072
:100AF000CC308C310C330C330C360C360C3C0C3CAB
:100B00000C380C3000000000000000000000000065
:100B10000000E007F81F1C380E70066003C003C019
:100B200003C003C003C003C003C006600E701C38BE
:100B3000F81FE007000000000000000000000000B7
:100B40000000FC0FFC1F0C380C300C300C300C304B
:100B50000C18FC1FFC070C000C000C000C000C0017
:100B60000C000C000000000000000000000000006D
:100B70000000E007F81F1C380E70066003E003C099
:100B800003C003C003C003C007E006630E3F1C3C64
:100B9000F83FE0F700C00000000000000000000087
:100BA0000000FE0FFE1F06380630063006300638FD
:100BB000FE1FFE0706030606060C0618061806307A
:100BC0000630066000000000000000000000000089
:100BD0000000E003F80F1C0C0C180C180C001C0093
:100BE000F803E00F001E0038063006300E301C1CE3
:100BF000F80FE00700000000000000000000000007
:100C00000000FE7FFE7F8001800180018001800165
:100C100080018001800180018001800180018001CC
:100C200080018001000000000000000000000000C2
:100C300000000C300C300C300C300C300C300C3010
:100C40000C300C300C300C300C300C300C301818D0
:100C5000F81FE00700000000000000000000000096
:100C6000000003600630063006300C180C180C1813
:100C7000180C180C380E300630067007600360033D
:100C8000C001C001000000000000000000000000E2
:100C900000000360C361C361C361663366336633BA
:100CA0006633663366336C1B6C1B6C1B2C1A3C1E44
:100CB000380E380E000000000000000000000000A8
:100CC00000000FE00C7018303018700C600EC00778
:100CD00080038003C003E006700C301C18180C3031
:100CE0000E6007E0000000000000000000000000AF
:100CF000000003C006600C301C383818300C600649
:100D0000E007C00380018001800180018001800133
:100D100080018001000000000000000000000000D1
:100D20000000FC7FFC7F006000300018000C000613
:100D300000038001C0006000300018000C000600B5
:100D4000FE7FFE7F000000000000000000000000A9
:100D50000000E003E00360006000600060006000ED
:100D60006000600060006000600060006000600083
:100D700060006000600060006000E003E0030000CD
:100D8000000030003000600060006000C000C00063
:100D9000C000C00180018001800100030003000346
:100DA0000006000600000000000000000000000037
:100DB0000000E003E003000300030003000300035E
:100DC000000300030003000300030003000300030B
:100DD00000030003000300030003E003E00300003E
:100DE00000000000C001C001600360036003300622
:100DF0003006180C180C0000000000000000000075
:100E000000000000000000000000000000000000E2
:100E100000000000000000000000000000000000D2
:100E200000000000000000000000000000000000C2
:100E30000000FFFFFFFF00000000000000000000B6
:100E400000000C000C000C000C000C000C0000005A
:100E50000000000000000000000000000000000092
:100E60000000000000000000000000000000000082
:100E7000000000000000000000000000F003F80780
:100E80001C0C0C0C000FF00FF80C0C0C0C0C1C0FB5
:100E9000F80FF01800000000000000000000000043
:100EA000000018001800180018001800D803F80FE8
:100EB000380C181818181818181818181818380C8A
:100EC000F80FD80300000000000000000000000040
:100ED000000000000000000000000000C003F00758
:100EE000300E180C1800180018001800180C300EDE
:100EF000F007C00300000000000000000000000038
:100F0000000000180018001800180018C01BF01F7F
:100F1000301C181818181818181818181818301C19
:100F2000F01FC01B000000000000000000000000D7
:100F3000000000000000000000000000C003F00FEF
:100F4000300C1818F81FF81F180018003818301C3B
:100F5000F00FC007000000000000000000000000CB
:100F60000000800FC00FC000C000C000F007F007F5
:100F7000C000C000C000C000C000C000C000C00071
:100F8000C000C000000000000000000000000000E1
:100F9000000000000000000000000000E00DF80F5D
:100FA000180E0C0C0C0C0C0C0C0C0C0C0C0C180E65
:100FB000F80FE00D000C0C0C1C06F807F001000007
:100FC000000018001800180018001800D807F80FC3
:100FD000381C18181818181818181818181818186D
:100FE00018181818000000000000000000000000A1
:100FF0000000C000C000000000000000C000C000F1
:10100000C000C000C000C000C000C000C000C000E0
:10101000C000C00000000000000000000000000050
:101020000000C000C000000000000000C000C000C0
:10103000C000C000C000C000C000C000C000C000B0
:10104000C000C000C000C000C000F8007800000070
:1010500000000C000C000C000C000C000C0C0C062A
:101060000C038C01CC006C00FC009C018C030C0375
:101070000C060C0C00000000000000000000000046
:101080000000C000C000C000C000C000C000C00020
:10109000C000C000C000C000C000C000C000C00050
:1010A000C000C000000000000000000000000000C0
:1010B0000000000000000000000000007C3CFF7EFB
:1010C000C7E383C183C183C183C183C183C183C19A
:1010D00083C183C100000000000000000000000088
:1010E0000000000000000000000000009807F80F5A
:1010F000381C18181818181818181818181818184C
:10110000181818180000000000000000000000007F
:10111000000000000000000000000000C003F00F0D
:10112000300C181818181818181818181818300C27
:10113000F00FC003000000000000000000000000ED
:10114000000000000000000000000000D803F80FBD
:10115000380C181818181818181818181818380CE7
:10116000F80FD80318001800180018001800000025
:10117000000000000000000000000000C01BF01F85
:10118000301C181818181818181818181818301CA7
:10119000F01FC01B001800180018001800180000ED
:1011A000000000000000000000000000B007F00395
:1011B000700030003000300030003000300030006F
:1011C00030003000000000000000000000000000BF
:1011D000000000000000000000000000E003F00339
:1011E000380E180C3800F003C007000C180C380E2D
:1011F000F007E00300000000000000000000000015
:10120000000000008000C000C000C000F007F00730
:10121000C000C000C000C000C000C000C000C000CE
:10122000C007800700000000000000000000000070
:10123000000000000000000000000000181818184E
:101240001818181818181818181818181818381CFA
:10125000F01FE01900000000000000000000000086
:101260000000000000000000000000000C18180C36
:10127000180C180C3006300630066003600360035B
:10128000C001C001000000000000000000000000DC
:10129000000000000000000000000000C141C1414A
:1012A000C3616363636363633636363636361C1C4C
:1012B0001C1C1C1C000000000000000000000000BE
:1012C0000000000000000000000000001C38381C76
:1012D000300C600660036003600360036006300C3E
:1012E000381C1C3800000000000000000000000056
:1012F000000000000000000000000000183030185E
:1013000030187018600C600CE00CC006C00680033A
:101310008003800380018001C001F00070000000A4
:10132000000000000000000000000000FC1FFC1F87
:10133000000C000600038001C000600030001800AF
:10134000FC1FFC1F00000000000000000000000067
:10135000000000038001C000C000C000C000C00049
:10136000C00060006000300060004000C000C000AD
:10137000C000C000C000C0008001000300000000E9
:1013800000008001800180018001800180018001D6
:101390008001800180018001800180018001800145
:1013A00080018001800180018001800180010000B6
:1013B00000006000C000C001800180018001800148
:1013C000800100030003000600030001800180018A
:1013D0008001800180018001C000600000000000E9
:1013E00000000000000000000000000000000000FD
:1013F000F010F81F080F00000000000000000000BF
:1014000000000000000000000000000000000000DC
:1014100000000000000000000000000000000000CC
:101420000000183C3C3C1818180018180000000078
:101430000066666624000000000000000000000056
:101440000000006C6CFE6C6C6CFE6C6C00000000AC
:1014500018187CC6C2C07C0686C67C18180000001E
:1014600000000000C2C60C183060C68600000000F4
:101470000000386C6C3876DCCCCCCC7600000000F8
:10148000003030306000000000000000000000006C
:1014900000000C18303030303030180C00000000E4
:1014A000000030180C0C0C0C0C0C18300000000064
:1014B0000000000000663CFF3C66000000000000E9
:1014C000000000000018187E18180000000000003E
:1014D0000000000000000000001818183000000094
:1014E00000000000000000FE0000000000000000FE
:1014F00000000000000000000000181800000000BC
:101500000000000002060C183060C08000000000DF
:1015100000007CC6C6CED6D6E6C6C67C000000005B
:1015200000001838781818181818187E00000000E5
:1015300000007CC6060C183060C0C6FE000000002B
:1015400000007CC606063C060606C67C00000000BD
:1015500000000C1C3C6CCCFE0C0C0C1E00000000AF
:101560000000FEC0C0C0FC0E0606C67C00000000E5
:1015700000003860C0C0FCC6C6C6C67C00000000C3
:101580000000FEC606060C183030303000000000A7
:1015900000007CC6C6C67CC6C6C6C67C000000006D
:1015A00000007CC6C6C67E0606060C780000000059
:1015B00000000000181800000018180000000000CB
:1015C000000000001818000000181830000000008B
:1015D000000000060C18306030180C0600000000F7
:1015E000000000000000FE0000FE000000000000FF
:1015F0000000006030180C060C183060000000007D
:1016000000007CC6C60C181818001818000000004E
:101610000000007CC6C6DEDEDEDCC07C0000000010
:10162000000010386CC6C6FEC6C6C6C60000000064
:101630000000FC6666667C66666666FC000000006C
:1016400000003C66C2C0C0C0C0C2663C00000000D2
:101650000000F86C6666666666666CF8000000005E
:101660000000FE6662687868606266FE0000000046
:101670000000FE6662687868606060F0000000004C
:1016800000003C66C2C0C0DEC6C6663A000000006C
:101690000000C6C6C6C6FEC6C6C6C6C60000000056
:1016A00000003C18181818181818183C0000000002
:1016B00000001E0C0C0C0C0CCCCCCC7800000000F4
:1016C0000000E6666C6C78786C6666E600000000E8
:1016D0000000F06060606060606266FE0000000014
:1016E0000000C6EEFEFED6C6C6C6C6C60000000096
:1016F0000000C6E6F6FEDECEC6C6C6C60000000086
:101700000000386CC6C6C6C6C6C66C3800000000ED
:101710000000FC6666667C60606060F000000000AF
:1017200000007CC6C6C6C6C6C6D6DE7C0C0E00004F
:101730000000FC6666667C6C666666E6000000007B
:1017400000007CC6C660380C06C6C67C00000000DF
:1017500000007E7E5A1818181818183C0000000067
:101760000000C6C6C6C6C6C6C6C6C67C0000000007
:101770000000C6C6C6C6C6C6C66C3810000000004B
:101780000000C6C6C6C6C6D6D6FE6C6C00000000F9
:101790000000C6C66C6C38386C6CC6C60000000011
:1017A0000000666666663C181818183C00000000C9
:1017B0000000FEC6860C183060C2C6FE00000000A5
:1017C00000003C30303030303030303C0000000021
:1017D00000000080C0E070381C0E0602000000000F
:1017E00000003C0C0C0C0C0C0C0C0C3C0000000021
:1017F00010386CC60000000000000000000000006F
:1018000000000000000000000000000000FF0000D9
:101810003030180000000000000000000000000050
:101820000000000000780C7CCCCCCC7600000000DE
:101830000000E06060786C66666666DC00000000B0
:1018400000000000007CC6C0C0C0C67C00000000D4
:1018500000001C0C0C3C6CCCCCCCCC760000000006
:1018600000000000007CC6FEC0C0C67C0000000076
:101870000000386C6460F060606060F000000000A0
:10188000000000000076CCCCCCCCCC7C0CCC78001A
:101890000000E060606C7666666666E60000000048
:1018A00000001818003818181818183C000000001C
:1018B00000000606000E06060606060666663C00E2
:1018C0000000E06060666C78786C66E600000000FE
:1018D00000003818181818181818183C00000000D4
:1018E0000000000000ECFED6D6D6D6D600000000E0
:1018F0000000000000DC66666666666600000000A8
:1019000000000000007CC6C6C6C6C67C0000000001
:101910000000000000DC66666666667C6060F000C1
:10192000000000000076CCCCCCCCCC7C0C0C1E0093
:101930000000000000DC7662606060F000000000E3
:1019400000000000007CC660380CC67C000000006F
:101950000000103030FC30303030361C0000000009
:101960000000000000CCCCCCCCCCCC760000000039
:10197000000000000066666666663C180000000015
:101980000000000000C6C6C6D6D6FE6C00000000EF
:101990000000000000C66C3838386CC6000000003B
:1019A0000000000000C6C6C6C6C6C67E060CF8000B
:1019B0000000000000FECC183060C6FE00000000F1
:1019C00000000E18181870181818180E00000000E3
:1019D000000018181818001818181818000000002F
:1019E0000000701818180E18181818700000000061
:1019F000000076DC00000000000000000000000095
:101A00000000000010386CC6C6C6FE0000000000D2
:101A1000001078005F00011BFFFFFFFFFFFFFFFFCB
:101A2000FFFFFFFFFFFFFFFFFFFFFFFFFFFFFFFFC6
:101A3000FFFFFFFFFFFFFFFFFFFFFFFFFFFFFFFFB6
:101A4000FFFFFFFFFFFFFFFFFFFFFFFFFFFFFFFFA6
:101A5000FFFFFFFFFFFFFFFFFFFFFFFFFFFFFFFF96
:101A6000FFFFFFFFFFFFFFFFFFFFFFFFFFFFFFFF86
:101A7000FFFFFFFFFFFFFFFFFFFFFFFFFFF7BFE7D6
:101A80007ECFFEAE3D8EFC6DBC4D7B3D3B353B2D90
:101A90007B3D7C45BC5D3C767D96FEBE7EDFBFEF28
:101AA000FFFFFFFFFFFFFFFFFFFFFFFFFFFFFFFF46
:101AB000FFFFFFFFFFFFFFFFFFFFFFFFFFFFFFFF36
:101AC000FFFFFFFFFFFFFFFFFFFFFFFFFFFFFFFF26
:101AD000FFFFFFFFFFFFFFFFFFFFFFFFFFFFFFFF16
:101AE000FFFFFFFFFFFFFFFFFFFFFFFFFFFFFFFF06
:101AF000FFFFFFFFFFFFFFFFFFFFFFFFFFFFFFFFF6
:101B0000FFFFFFFFFFFFFFFFFFFFFFFFFFFFFFFFE5
:101B1000FFFFFFFFFFFFFFFFFFFFFFFFFFFFFFFFD5
:101B2000FFFFFFFFFFFFFFFFFFFFFFFFFFFFFFFFC5
:101B3000FFFFFFFFFFFFFFFFFFFFFFFFFFFFFFFFB5
:101B4000FFFFFFFFFFFFFFFFFFFFFFFFFFFFFFFFA5
:101B5000FFFFFFFFFFFFFFFFFFFFFFFFFFFFFFFF95
:101B6000FFFFFFFFFFFFFFF77EE7BDAEFC6D3B35DC
:101B70007A0C79047A04BA04BA04BA04BA04BA042E
:101B8000BA04BA047A047A047A04BA04FB24BC4D79
:101B90007D863ECFBFEFFFFFFFFFFFFFFFFFFFFF91
:101BA000FFFFFFFFFFFFFFFFFFFFFFFFFFFFFFFF45
:101BB000FFFFFFFFFFFFFFFFFFFFFFFFFFFFFFFF35
:101BC000FFFFFFFFFFFFFFFFFFFFFFFFFFFFFFFF25
:101BD000FFFFFFFFFFFFFFFFFFFFFFFFFFFFFFFF15
:101BE000FFFFFFFFFFFFFFFFFFFFFFFFFFFFFFFF05
:101BF000FFFFFFFFFFFFFFFFFFFFFFFFFFFFFFFFF5
:101C0000FFFFFFFFFFFFFFFFFFFFFFFFFFFFFFFFE4
:101C1000FFFFFFFFFFFFFFFFFFFFFFFFFFFFFFFFD4
:101C2000FFFFFFFFFFFFFFFFFFFFFFFFFFFFFFFFC4
:101C3000FFFFFFFFFFFFFFFFFFFFFFFFFFFFFFFFB4
:101C4000FFFFFFFFFFFFFFFFFFFFFFFFFFFFFFFFA4
:101C5000FFFFBFEFFDC67B7D3934570B160316031C
:101C6000560356039703D8033904BA04BB04BB04D4
:101C7000BA04BA04BA04BA04BA04BA047A047A04F4
:101C80007A04FA1CBC55BDA67FDFFFFFFFFFFFFFF4
:101C9000FFFFFFFFFFFFFFFFFFFFFFFFFFFFFFFF54
:101CA000FFFFFFFFFFFFFFFFFFFFFFFFFFFFFFFF44
:101CB000FFFFFFFFFFFFFFFFFFFFFFFFFFFFFFFF34
:101CC000FFFFFFFFFFFFFFFFFFFFFFFFFFFFFFFF24
:101CD000FFFFFFFFFFFFFFFFFFFFFFFFFFFFFFFF14
:101CE000FFFFFFFFFFFFFFFFFFFFFFFFFFFFFFFF04
:101CF000FFFFFFFFFFFFFFFFFFFFFFFFFFFFFFFFF4
:101D0000FFFFFFFFFFFFFFFFFFFFFFFFFFFFFFFFE3
:101D1000FFFFFFFFFFFFFFFFFFFFFFFFFFFFFFFFD3
:101D2000FFFFFFFFFFFFFFFFFFFFFFFFFFFFFFFFC3
:101D3000FFFFFFFFFFFFFFFFFFFFFFFFFFFFFFFFB3
:101D40003DCF3A655613D602D60216031603160384
:101D5000160316031603560356035703D903BA0492
:101D6000BB04BA04BA04BA04BA04BA04BA04BA0482
:101D7000BA047A047A04BA043B35BD9EBFE7FFFF7C
:101D8000FFFFFFFFFFFFFFFFFFFFFFFFFFFFFFFF63
:101D9000FFFFFFFFFFFFFFFFFFFFFFFFFFFFFFFF53
:101DA000FFFFFFFFFFFFFFFFFFFFFFFFFFFFFFFF43
:101DB000FFFFFFFFFFFFFFFFFFFFFFFFFFFFFFFF33
:101DC000FFFFFFFFFFFFFFFFFFFFFFFFFFFFFFFF23
:101DD000FFFFFFFFFFFFFFFFFFFFFFFFFFFFFFFF13
:101DE000FFFFFFFFFFFFFFFFFFFFFFFFFFFFFFFF03
:101DF000FFFFFFFFFFFFFFFFFFFFFFFFFFFFFFFFF3
:101E0000FFFFFFFFFFFFFFFFFFFFFFFFFFFFFFFFE2
:101E1000FFFFFFFFFFFFFFFFFFFFFFFFFFFFFFFFD2
:101E2000FFFFFFFFFFFFFFFFFFFFFFFF7EDF7B8561
:101E3000971BD50216031603560356035603560383
:101E400056035603560356035603160356039703C9
:101E50007904FB04BA04BA04BA04BA04BA04BA0492
:101E6000BA04BA04BA04BA047A047A0CBB4DFDAEC3
:101E7000FFF7FFFFFFFFFFFFFFFFFFFFFFFFFFFF7A
:101E8000FFFFFFFFFFFFFFFFFFFFFFFFFFFFFFFF62
:101E9000FFFFFFFFFFFFFFFFFFFFFFFFFFFFFFFF52
:101EA000FFFFFFFFFFFFFFFFFFFFFFFFFFFFFFFF42
:101EB000FFFFFFFFFFFFFFFFFFFFFFFFFFFFFFFF32
:101EC000FFFFFFFFFFFFFFFFFFFFFFFFFFFFFFFF22
:101ED000FFFFFFFFFFFFFFFFFFFFFFFFFFFFFFFF12
:101EE000FFFFFFFFFFFFFFFFFFFFFFFFFFFFFFFF02
:101EF000FFFFFFFFFFFFFFFFFFFFFFFFFFFFFFFFF2
:101F0000FFFFFFFFFFFFFFFFFFFFFFFFFFFFFFFFE1
:101F1000FFFFFFFFFFFFFFFFFFFF7CB63834950296
:101F2000D60256035603560356035603560356036A
:101F30005603560356035603560356035603160319
:101F400056033904FB04BA04BA04BA04BA04BA0446
:101F5000BA04BA04BA04BA04BA04BA047A04BB0CC8
:101F60003C76BFE7FFFFFFFFFFFFFFFFFFFFFFFF25
:101F7000FFFFFFFFFFFFFFFFFFFFFFFFFFFFFFFF71
:101F8000FFFFFFFFFFFFFFFFFFFFFFFFFFFFFFFF61
:101F9000FFFFFFFFFFFFFFFFFFFFFFFFFFFFFFFF51
:101FA000FFFFFFFFFFFFFFFFFFFFFFFFFFFFFFFF41
:101FB000FFFFFFFFFFFFFFFFFFFFFFFFFFFFFFFF31
:101FC000FFFFFFFFFFFFFFFFFFFFFFFFFFFFFFFF21
:101FD000FFFFFFFFFFFFFFFFFFFFFFFFFFFFFFFF11
:101FE000FFFFFFFFFFFFFFFFFFFFFFFFFFFFFFFF01
:101FF000FFFFFFFFFFFFFFFFFFFFFFFFFFFFFFFFF1
:10200000FFFFFFFFFFFFBFEFBB7D56139602560396
:1020100056035603560356035603560356035603F8
:1020200056035603560356035603560356035603E8
:10203000160316033904FB04BA04BA04BA04BA043A
:10204000BA04BA04BA04BA04BA04BA04BA047A04E0
:102050007A04BC4D7EDFFFFFFFFFFFFFFFFFFFFFA6
:10206000FFFFFFFFFFFFFFFFFFFFFFFFFFFFFFFF80
:10207000FFFFFFFFFFFFFFFFFFFFFFFFFFFFFFFF70
:10208000FFFFFFFFFFFFFFFFFFFFFFFFFFFFFFFF60
:10209000FFFFFFFFFFFFFFFFFFFFFFFFFFFFFFFF50
:1020A000FFFFFFFFFFFFFFFFFFFFFFFFFFFFFFFF40
:1020B000FFFFFFFFFFFFFFFFFFFFFFFFFFFFFFFF30
:1020C000FFFFFFFFFFFFFFFFFFFFFFFFFFFFFFFF20
:1020D000FFFFFFFFFFFFFFFFFFFFFFFFFFFFFFFF10
:1020E000FFFFFFFFFFFFFFFFFFFFFFFFFFFFFFFF00
:1020F000FFFFFFFFBEE7F95CD502D6025603560389
:102100005603560356035603560356035603560307
:1021100056035603560356035603560356035603F7
:102120005603160357037A04BB04BA04BA04BA046C
:10213000BA04BA04BA04BA04BA04BA04BA04BA04AF
:10214000BA047A047C4DBFE7FFFFFFFFFFFFFFFFEC
:10215000FFFFFFFFFFFFFFFFFFFFFFFFFFFFFFFF8F
:10216000FFFFFFFFFFFFFFFFFFFFFFFFFFFFFFFF7F
:10217000FFFFFFFFFFFFFFFFFFFFFFFFFFFFFFFF6F
:10218000FFFFFFFFFFFFFFFFFFFFFFFFFFFFFFFF5F
:10219000FFFFFFFFFFFFFFFFFFFFFFFFFFFFFFFF4F
:1021A000FFFFFFFFFFFFFFFFFFFFFFFFFFFFFFFF3F
:1021B000FFFFFFFFFFFFFFFFFFFFFFFFFFFFFFFF2F
:1021C000FFFFFFFFFFFFFFFFFFFFFFFFFFFFFFFF1F
:1021D000FFFFFFFFFFFFFFFFFFFFFFFFFFFFFFFF0F
:1021E000FFFF7EDFB944D60216035603560356039B
:1021F0005603560356035603560356035603560317
:102200005603560356035603560356035603560306
:102210005603560316039703BB04BB04BA04BA045F
:10222000BA04BA04BA04BA04BA04BA04BA04BA04BE
:10223000BA04BA047A04FC75FFF7FFFFFFFFFFFF43
:10224000FFFFFFFFFFFFFFFFFFFFFFFFFFFFFFFF9E
:10225000FFFFFFFFFFFFFFFFFFFFFFFFFFFFFFFF8E
:10226000FFFFFFFFFFFFFFFFFFFFFFFFFFFFFFFF7E
:10227000FFFFFFFFFFFFFFFFFFFFFFFFFFFFFFFF6E
:10228000FFFFFFFFFFFFFFFFFFFFFFFFFFFFFFFF5E
:10229000FFFFFFFFFFFFFFFFFFFFFFFFFFFFFFFF4E
:1022A000FFFFFFFFFFFFFFFFFFFFFFFFFFFFFFFF3E
:1022B000FFFFFFFFFFFFFFFFFFFFFFFFFFFFFFFF2E
:1022C000FFFFFFFFFFFFFFFFFFFFFFFFFFFFFFFF1E
:1022D000BEE7794CD60256035603560356035603FF
:1022E0005603560356035603560356035603560326
:1022F0005603560356035603560356035603560316
:102300005603560356031603D903BB04BA04BA0492
:10231000BA04BA04BA04BA04BA04BA04BA04BA04CD
:10232000BA04BA04BA04BB0CFEB6FFFFFFFFFFFFFE
:10233000FFFFFFFFFFFFFFFFFFFFFFFFFFFFFFFFAD
:10234000FFFFFFFFFFFFFFFFFFFFFFFFFFFFFFFF9D
:10235000FFFFFFFFFFFFFFFFFFFFFFFFFFFFFFFF8D
:10236000FFFFFFFFFFFFFFFFFFFFFFFFFFFFFFFF7D
:10237000FFFFFFFFFFFFFFFFFFFFFFFFFFFFFFFF6D
:10238000FFFFFFFFFFFFFFFFFFFFFFFFFFFFFFFF5D
:10239000FFFFFFFFFFFFFFFFFFFFFFFFFFFFFFFF4D
:1023A000FFFFFFFFFFFFFFFFFFFFFFFFFFFFFFFF3D
:1023B000FFFFFFFFFFFFFFFFFFFFFFFFFFFF7EEFBE
:1023C000B94CD6025603560356035603560356031A
:1023D0005603560356035603560356035603560335
:1023E0005603560356035603560356035603560325
:1023F00056035603560316035703BA04FB04BA04E4
:10240000BA04BA04BA04BA04BA04BA04BA04BA04DC
:10241000BA04BA04BA047A047B4DBFE7FFFFFFFF9A
:10242000FFFFFFFFFFFFFFFFFFFFFFFFFFFFFFFFBC
:10243000FFFFFFFFFFFFFFFFFFFFFFFFFFFFFFFFAC
:10244000FFFFFFFFFFFFFFFFFFFFFFFFFFFFFFFF9C
:10245000FFFFFFFFFFFFFFFFFFFFFFFFFFFFFFFF8C
:10246000FFFFFFFFFFFFFFFFFFFFFFFFFFFFFFFF7C
:10247000FFFFFFFFFFFFFFFFFFFFFFFFFFFFFFFF6C
:10248000FFFFFFFFFFFFFFFFFFFFFFFFFFFFFFFF5C
:10249000FFFFFFFFFFFFFFFFFFFFFFFFFFFFFFFF4C
:1024A000FFFFFFFFFFFFFFFFFFFFFFFFFFFF3A6D93
:1024B000D6025603560356035603560356035603D5
:1024C0005603560356035603560356035603560344
:1024D0005603560356035603560356035603560334
:1024E000560356035603560316033A04BB04BA04B4
:1024F000BA04BA04BA04BA04BA04BA04BA04BA04EC
:10250000BA04BA04BA04BA04FA143EBFFFFFFFFFCC
:10251000FFFFFFFFFFFFFFFFFFFFFFFFFFFFFFFFCB
:10252000FFFFFFFFFFFFFFFFFFFFFFFFFFFFFFFFBB
:10253000FFFFFFFFFFFFFFFFFFFFFFFFFFFFFFFFAB
:10254000FFFFFFFFFFFFFFFFFFFFFFFFFFFFFFFF9B
:10255000FFFFFFFFFFFFFFFFFFFFFFFFFFFFFFFF8B
:10256000FFFFFFFFFFFFFFFFFFFFFFFFFFFFFFFF7B
:10257000FFFFFFFFFFFFFFFFFFFFFFFFFFFFFFFF6B
:10258000FFFFFFFFFFFFFFFFFFFFFFFFFFFFFFFF5B
:10259000FFFFFFFFFFFFFFFFFFFFFFFFFB95560B56
:1025A00016035603560356035603560356035603A3
:1025B0005603560356035603560356035603560353
:1025C0005603560356035603560356035603560343
:1025D00056035603560356031603D803BB04BB0425
:1025E000BA04BA04BA04BA04BA04BA04BA04BA04FB
:1025F000BA04BA04BA04BA047A047C86FFF7FFFF6F
:10260000FFFFFFFFFFFFFFFFFFFFFFFFFFFFFFFFDA
:10261000FFFFFFFFFFFFFFFFFFFFFFFFFFFFFFFFCA
:10262000FFFFFFFFFFFFFFFFFFFFFFFFFFFFFFFFBA
:10263000FFFFFFFFFFFFFFFFFFFFFFFFFFFFFFFFAA
:10264000FFFFFFFFFFFFFFFFFFFFFFFFFFFFFFFF9A
:10265000FFFFFFFFFFFFFFFFFFFFFFFFFFFFFFFF8A
:10266000FFFFFFFFFFFFFFFFFFFFFFFFFFFFFFFF7A
:10267000FFFFFFFFFFFFFFFFFFFFFFFFFFFFFFFF6A
:10268000FFFFFFFFFFFFFFFFFFFFFDBE971B1603CE
:102690005603560356035603560356035603560372
:1026A0005603560356035603560356035603560362
:1026B0005603560356035603560356035603560352
:1026C000560356035603560356039703BB04BB0435
:1026D000BA04BA04BA04BA04BA04BA04BA04BA040A
:1026E000BA04BA04BA04BA047A04BC5DBFEFFFFFAF
:1026F000FFFFFFFFFFFFFFFFFFFFFFFFFFFFFFFFEA
:10270000FFFFFFFFFFFFFFFFFFFFFFFFFFFFFFFFD9
:10271000FFFFFFFFFFFFFFFFFFFFFFFFFFFFFFFFC9
:10272000FFFFFFFFFFFFFFFFFFFFFFFFFFFFFFFFB9
:10273000FFFFFFFFFFFFFFFFFFFFFFFFFFFFFFFFA9
:10274000FFFFFFFFFFFFFFFFFFFFFFFFFFFFFFFF99
:10275000FFFFFFFFFFFFFFFFFFFFFFFFFFFFFFFF89
:10276000FFFFFFFFFFFFFFFFFFFFFFFFFFFFFFFF79
:10277000FFFFFFFFFFFFFFFFFFF77954D60256036D
:102780005603560356035603560356035603560381
:102790005603560356035603560356035603560371
:1027A0005603560356035603560356035603560361
:1027B000560356035603560316035703BA04FB0485
:1027C000BA04BA04BA04BA04BA04BA04BA04BA0419
:1027D000BA04BA04BA04BA047A043B35BFE7FFFF6F
:1027E000FFFFFFFFFFFFFFFFFFFFFFFFFFFFFFFFF9
:1027F000FFFFFFFFFFFFFFFFFFFFFFFFFFFFFFFFE9
:10280000FFFFFFFFFFFFFFFFFFFFFFFFFFFFFFFFD8
:10281000FFFFFFFFFFFFFFFFFFFFFFFFFFFFFFFFC8
:10282000FFFFFFFFFFFFFFFFFFFFFFFFFFFFFFFFB8
:10283000FFFFFFFFFFFFFFFFFFFFFFFFFFFFFFFFA8
:10284000FFFFFFFFFFFFFFFFFFFFFFFFFFFFFFFF98
:10285000FFFFFFFFFFFFFFFFFFFFFFFFFFFFFFFF88
:10286000FFFFFFFFFFFFFFFFFB95160B560356030D
:102870005603560356035603560356035603560390
:102880005603560356035603560356035603560380
:102890005603560356035603560356035603560370
:1028A0005603560356035603160356037A04BB0415
:1028B000BA04BA04BA04BA04BA04BA04BA04BA0428
:1028C000BA04BA04BA04BA047A04FA2C7FD7FFFF18
:1028D000FFFFFFFFFFFFFFFFFFFFFFFFFFFFFFFF08
:1028E000FFFFFFFFFFFFFFFFFFFFFFFFFFFFFFFFF8
:1028F000FFFFFFFFFFFFFFFFFFFFFFFFFFFFFFFFE8
:10290000FFFFFFFFFFFFFFFFFFFFFFFFFFFFFFFFD7
:10291000FFFFFFFFFFFFFFFFFFFFFFFFFFFFFFFFC7
:10292000FFFFFFFFFFFFFFFFFFFFFFFFFFFFFFFFB7
:10293000FFFFFFFFFFFFFFFFFFFFFFFFFFFFFFFFA7
:10294000FFFFFFFFFFFFFFFFFFFFFFFFFFFFFFFF97
:10295000FFFFFFFFFFFF7EE7D73316035603560343
:10296000560356035603560356035603560356039F
:10297000560356035603560356035603560356038F
:10298000560356035603560356035603560356037F
:102990005603560356035603160356037A04BB0424
:1029A000BA04BA04BA04BA04BA04BA04BA04BA0437
:1029B000BA04BA04BA04BA047A04FA2C7FDFFFFF1F
:1029C000FFFFFFFFFFFFFFFFFFFFFFFFFFFFFFFF17
:1029D000FFFFFFFFFFFFFFFFFFFFFFFFFFFFFFFF07
:1029E000FFFFFFFFFFFFFFFFFFFFFFFFFFFFFFFFF7
:1029F000FFFFFFFFFFFFFFFFFFFFFFFFFFFFFFFFE7
:102A0000FFFFFFFFFFFFFFFFFFFFFFFFFFFFFFFFD6
:102A1000FFFFFFFFFFFFFFFFFFFFFFFFFFFFFFFFC6
:102A2000FFFFFFFFFFFFFFFFFFFFFFFFFFFFFFFFB6
:102A3000FFFFFFFFFFFFFFFFFFFFFFFFFFFFFFFFA6
:102A4000FFFFFFFFFFFFFB8D160B560356035603D8
:102A500056035603560356035603560356035603AE
:102A6000560356035603560356035603560356039E
:102A7000560356035603560356035603560356038E
:102A80005603560356035603560357037A04BB04F2
:102A9000BA04BA04BA04BA04BA04BA04BA04BA0446
:102AA000BA04BA04BA04BA047A043B3DBFE7FFFF94
:102AB000FFFFFFFFFFFFFFFFFFFFFFFFFFFFFFFF26
:102AC000FFFFFFFFFFFFFFFFFFFFFFFFFFFFFFFF16
:102AD000FFFFFFFFFFFFFFFFFFFFFFFFFFFFFFFF06
:102AE000FFFFFFFFFFFFFFFFFFFFFFFFFFFFFFFFF6
:102AF000FFFFFFFFFFFFFFFFFFFFFFFFFFFFFFFFE6
:102B0000FFFFFFFFFFFFFFFFFFFFFFFFFFFFFFFFD5
:102B1000FFFFFFFFFFFFFFFFFFFFFFFFFFFFFFFFC5
:102B2000FFFFFFFFFFFFFFFFFFFFFFFFFFFFFFFFB5
:102B3000FFFFFFFFBEE7783CD6025603560356035D
:102B400056035603560356035603560356035603BD
:102B500056035603560356035603560356035603AD
:102B6000560356035603560356035603560356039D
:102B700056035603560356031603D703BB04BB0480
:102B8000BA04BA04BA04BA04BA04BA04BA04BA0455
:102B9000BA04BA04BA04BA047A04FC5DBFEFFFFFBA
:102BA000FFFFFFFFFFFFFFFFFFFFFFFFFFFFFFFF35
:102BB000FFFFFFFFFFFFFFFFFFFFFFFFFFFFFFFF25
:102BC000FFFFFFFFFFFFFFFFFFFFFFFFFFFFFFFF15
:102BD000FFFFFFFFFFFFFFFFFFFFFFFFFFFFFFFF05
:102BE000FFFFFFFFFFFFFFFFFFFFFFFFFFFFFFFFF5
:102BF000FFFFFFFFFFFFFFFFFFFFFFFFFFFFFFFFE5
:102C0000FFFFFFFFFFFFFFFFFFFFFFFFFFFFFFFFD4
:102C1000FFFFFFFFFFFFFFFFFFFFFFFFFFFFFFFFC4
:102C2000FFFFFFFF3B9E5613160356035603560342
:102C300056035603560356035603560356035603CC
:102C400056035603560356035603560356035603BC
:102C500056035603560356035603560356035603AC
:102C6000560356035603560316033804BB04BB042D
:102C7000BA04BA04BA04BA04BA04BA04BA04BA0464
:102C8000BA04BA04BA04BA04BA047D8EFFFFFFFF87
:102C9000FFFFFFFFFFFFFFFFFFFFFFFFFFFFFFFF44
:102CA000FFFFFFFFFFFFFFFFFFFFFFFFFFFFFFFF34
:102CB000FFFFFFFFFFFFFFFFFFFFFFFFFFFFFFFF24
:102CC000FFFFFFFFFFFFFFFFFFFFFFFFFFFFFFFF14
:102CD000FFFFFFFFFFFFFFFFFFFFFFFFFFFFFFFF04
:102CE000FFFFFFFFFFFFFFFFFFFFFFFFFFFFFFFFF4
:102CF000FFFFFFFFFFFFFFFFFFFFFFFFFFFFFFFFE4
:102D0000FFFFFFFFFFFFFFFFFFFFFFFFFFFFFFFFD3
:102D1000FFFFBFF7B95CD5025603560356035603AF
:102D200056035603560356035603560356035603DB
:102D300056035603560356035603560356035603CB
:102D400056035603560356035603560356035603BB
:102D5000560356035603560316037904FB04BA04BC
:102D6000BA04BA04BA04BA04BA04BA04BA04BA0473
:102D7000BA04BA04BA047A04BA1C3ECFFFFFFFFFBC
:102D8000FFFFFFFFFFFFFFFFFFFFFFFFFFFFFFFF53
:102D9000FFFFFFFFFFFFFFFFFFFFFFFFFFFFFFFF43
:102DA000FFFFFFFFFFFFFFFFFFFFFFFFFFFFFFFF33
:102DB000FFFFFFFFFFFFFFFFFFFFFFFFFFFFFFFF23
:102DC000FFFFFFFFFFFFFFFFFFFFFFFFFFFFFFFF13
:102DD000FFFFFFFFFFFFFFFFFFFFFFFFFFFFFFFF03
:102DE000FFFFFFFFFFFFFFFFFFFFFFFFFFFFFFFFF3
:102DF000FFFFFFFFFFFFFFFFFFFFFFFFFFFFFFFFE3
:102E0000FFFF3DCFD82BD602560356035603560379
:102E100056035603560356035603560356035603EA
:102E200056035603560356035603560356035603DA
:102E300056035603560356035603560356035603CA
:102E400056035603560356039703BB04BB04BA0448
:102E5000BA04BA04BA04BA04BA04BA04BA04BA0482
:102E6000BA04BA04BA047A04FC65BFEFFFFFFFFF9F
:102E7000FFFFFFFFFFFFFFFFFFFFFFFFFFFFFFFF62
:102E8000FFFFFFFFFFFFFFFFFFFFFFFFFFFFFFFF52
:102E9000FFFFFFFFFFFFFFFFFFFFFFFFFFFFFFFF42
:102EA000FFFFFFFFFFFFFFFFFFFFFFFFFFFFFFFF32
:102EB000FFFFFFFFFFFFFFFFFFFFFFFFFFFFFFFF22
:102EC000FFFFFFFFFFFFFFFFFFFFFFFFFFFFFFFF12
:102ED000FFFFFFFFFFFFFFFFFFFFFFFFFFFFFFFF02
:102EE000FFFFFFFFFFFFFFFFFFFFFFFFFFFFFFFFF2
:102EF000FFFF7CA61613160356035603560356030C
:102F000056035603560356035603560356035603F9
:102F100056035603560356035603560356035603E9
:102F200056035603560356035603560356035603D9
:102F300056035603560316033904BB04BA04BA04F5
:102F4000BA04BA04BA04BA04BA04BA04BA04BA0491
:102F5000BA04BA047A04FB243ECFFFFFFFFFFFFF51
:102F6000FFFFFFFFFFFFFFFFFFFFFFFFFFFFFFFF71
:102F7000FFFFFFFFFFFFFFFFFFFFFFFFFFFFFFFF61
:102F8000FFFFFFFFFFFFFFFFFFFFFFFFFFFFFFFF51
:102F9000FFFFFFFFFFFFFFFFFFFFFFFFFFFFFFFF41
:102FA000FFFFFFFFFFFFFFFFFFFFFFFFFFFFFFFF31
:102FB000FFFFFFFFFFFFFFFFFFFFFFFFFFFFFFFF21
:102FC000FFFFFFFFFFFFFFFFFFFFFFFFFFFFFFFF11
:102FD000FFFFFFFFFFFFFFFFFFFFFFFFFFFFFFFF01
:102FE000FFFF7A75D602560356035603560356035F
:102FF0005603560356035603560356035603560309
:1030000056035603560356035603560356035603F8
:1030100056035603560356035603560356035603E8
:103020005603560356039703BB04BB04BA04BA0401
:10303000BA04BA04BA04BA04BA04BA04BA04BA04A0
:10304000BA047A04BA0CBEA6FFFFFFFFFFFFFFFF22
:10305000FFFFFFFFFFFFFFFFFFFFFFFFFFFFFFFF80
:10306000FFFFFFFFFFFFFFFFFFFFFFFFFFFFFFFF70
:10307000FFFFFFFFFFFFFFFFFFFFFFFFFFFFFFFF60
:10308000FFFFFFFFFFFFFFFFFFFFFFFFFFFFFFFF50
:10309000FFFFFFFFFFFFFFFFFFFFFFFFFFFFFFFF40
:1030A000FFFFFFFFFFFFFFFFFFFFFFFFFFFFFFFF30
:1030B000FFFFFFFFFFFFFFFFFFFFFFFFFFFFFFFF20
:1030C000FFFFFFFFFFFFFFFFFFFFFFFFFFFFFFFF10
:1030D000BEEFB954D50256035603560356035603A2
:1030E0005603560356035603560356035603560318
:1030F0005603560356035603560356035603560308
:1031000056035603560356035603560356035603F7
:103110005603560356033904BB04BA04BA04BA046E
:10312000BA04BA04BA04BA04BA04BA04BA04BA04AF
:103130007A047A043D7EFFF7FFFFFFFFFFFFFFFFEA
:10314000FFFFFFFFFFFFFFFFFFFFFFFFFFFFFFFF8F
:10315000FFFFFFFFFFFFFFFFFFFFFFFFFFFFFFFF7F
:10316000FFFFFFFFFFFFFFFFFFFFFFFFFFFFFFFF6F
:10317000FFFFFFFFFFFFFFFFFFFFFFFFFFFFFFFF5F
:10318000FFFFFFFFFFFFFFFFFFFFFFFFFFFFFFFF4F
:10319000FFFFFFFFFFFFFFFFFFFFFFFFFFFFFFFF3F
:1031A000FFFFFFFFFFFFFFFFFFFFFFFFFFFFFFFF2F
:1031B000FFFFFFFFFFFFFFFFFFFFFFFFFFFFFFFF1F
:1031C0003DD7D82BD6025603560356035603560353
:1031D0005603560356035603560356035603560327
:1031E0005603560356035603560356035603560317
:1031F0005603560356035603560356035603560307
:10320000560356039703BA04BB04BA04BA04BA04BB
:10321000BA04BA04BA04BA04BA04BA04BA047A04FE
:10322000BB143D86FFF7FFFFFFFFFFFFFFFFFFFF20
:10323000FFFFFFFFFFFFFFFFFFFFFFFFFFFFFFFF9E
:10324000FFFFFFFFFFFFFFFFFFFFFFFFFFFFFFFF8E
:10325000FFFFFFFFFFFFFFFFFFFFFFFFFFFFFFFF7E
:10326000FFFFFFFFFFFFFFFFFFFFFFFFFFFFFFFF6E
:10327000FFFFFFFFFFFFFFFFFFFFFFFFFFFFFFFF5E
:10328000FFFFFFFFFFFFFFFFFFFFFFFFFFFFFFFF4E
:10329000FFFFFFFFFFFFFFFFFFFFFFFFFFFFFFFF3E
:1032A000FFFFFFFFFFFFFFFFFFFFFFFFFFFFFFFF2E
:1032B000BDBE571B1603560356035603560356034B
:1032C0005603560356035603560356035603560336
:1032D0005603560356035603560356035603560326
:1032E0005603560356035603560356035603560316
:1032F00056031603D803BB04BB04BA04BA04BA04C9
:10330000BA04BA04BA04BA04BA047A04BA043B3D53
:10331000FEAEFFFFFFFFFFFFFFFFFFFFFFFFFFFF0F
:10332000FFFFFFFFFFFFFFFFFFFFFFFFFFFFFFFFAD
:10333000FFFFFFFFFFFFFFFFFFFFFFFFFFFFFFFF9D
:10334000FFFFFFFFFFFFFFFFFFFFFFFFFFFFFFFF8D
:10335000FFFFFFFFFFFFFFFFFFFFFFFFFFFFFFFF7D
:10336000FFFFFFFFFFFFFFFFFFFFFFFFFFFFFFFF6D
:10337000FFFFFFFFFFFFFFFFFFFFFFFFFFFFFFFF5D
:10338000FFFFFFFFFFFFFFFFFFFFFFFFFFFFFFFF4D
:10339000FFFFFFFFFFFFFFFFFFFFFFFFFFFFFFFF3D
:1033A0007CAE160B160356035603560356035603FC
:1033B0005603560356035603560356035603560345
:1033C0005603560356035603560356035603560335
:1033D0005603560356035603560356035603560325
:1033E000560316033904BB04BA04BA04BA04BA0477
:1033F0007A04BA047A04BA04BA0C3B2D3D7EBEE7C7
:10340000FFFFFFFFFFFFFFFFFFFFFFFFFFFFFFF7D4
:10341000FFEFFFF7FFFFFFFFFFFFFFFFFFFFFFFFD4
:10342000FFFFFFFFFFFFFFFFFFFFFFFFFFFFFFFFAC
:10343000FFFFFFFFFFFFFFFFFFFFFFFFFFFFFFFF9C
:10344000FFFFFFFFFFFFFFFFFFFFFFFFFFFFFFFF8C
:10345000FFFFFFFFFFFFFFFFFFFFFFFFFFFFFFFF7C
:10346000FFFFFFFFFFFFFFFFFFFFFFFFFFFFFFFF6C
:10347000FFFFFFFFFFFFFFFFFFFFFFFFFFFFFFFF5C
:10348000FFFFFFFFFFFFFFFFFFFFFFFFFFFFFFFF4C
:103490003B9E160316035603560356035603560364
:1034A0005603560356035603560356035603560354
:1034B0005603560356035603560356035603560344
:1034C0005603560356035603560356035603560334
:1034D00056031603D9037A047A047A047A047A0428
:1034E000BA0CFB247B45FC65BD967ED7FFFFFFFF32
:1034F000FFFFFFFFFFFFFFFFFFFFBFE7BEA63C6E22
:10350000FC5DFC6DBE9EBEE7FFFFFFFFFFFFFFFF00
:10351000FFFFFFFFFFFFFFFFFFFFFFFFFFFFFFFFBB
:10352000FFFFFFFFFFFFFFFFFFFFFFFFFFFFFFFFAB
:10353000FFFFFFFFFFFFFFFFFFFFFFFFFFFFFFFF9B
:10354000FFFFFFFFFFFFFFFFFFFFFFFFFFFFFFFF8B
:10355000FFFFFFFFFFFFFFFFFFFFFFFFFFFFFFFF7B
:10356000FFFFFFFFFFFFFFFFFFFFFFFFFFFFFFFF6B
:10357000FFFFFFFFFFFFFFFFFFFFFFFFFFFFFFFF5B
:10358000FB95D602160356035603560356035603FD
:103590005603560356035603560356035603560363
:1035A0005603560356035603560356035603560353
:1035B0005603560356035603560356035603160383
:1035C00016031603390CFB243B35BB4DFC657D8689
:1035D000BDA63EC7BEDFFFFFFFFFFFFFFFFFFFFFF0
:1035E000FFFFFFFFFFFFFFFF7EDFBC5D7A047A0471
:1035F0003A047A04BA04BC557FD7FFFFFFFFFFFFF0
:10360000FFFFFFFFFFFFFFFFFFFFFFFFFFFFFFFFCA
:10361000FFFFFFFFFFFFFFFFFFFFFFFFFFFFFFFFBA
:10362000FFFFFFFFFFFFFFFFFFFFFFFFFFFFFFFFAA
:10363000FFFFFFFFFFFFFFFFFFFFFFFFFFFFFFFF9A
:10364000FFFFFFFFFFFFFFFFFFFFFFFFFFFFFFFF8A
:10365000FFFFFFFFFFFFFFFFFFFFFFFFFFFFFFFF7A
:10366000FFFFFFFFFFFFFFFFFFFFFFFFFFFFFFFF6A
:10367000FB8DD60216035603560356035603560314
:103680005603560356035603560356035603560372
:103690005603560356035603560356035603560362
:1036A0005603560356035603560316035603560392
:1036B0009703D80BFC757ECF7FD7BFE7FFF7FFFFDF
:1036C000FFFFFFFFFFFFFFFFFFFFFFFFFFFFFFFF0A
:1036D000FFFFFFFFFFFFBFEF7C557A047A04BA04B7
:1036E000BA04BA04BA047A047C55BFE7FFFFFFFFAF
:1036F000FFFFFFFFFFFFFFFFFFFFFFFFFFFFFFFFDA
:10370000FFFFFFFFFFFFFFFFFFFFFFFFFFFFFFFFC9
:10371000FFFFFFFFFFFFFFFFFFFFFFFFFFFFFFFFB9
:10372000FFFFFFFFFFFFFFFFFFFFFFFFFFFFFFFFA9
:10373000FFFFFFFFFFFFFFFFFFFFFFFFFFFFFFFF99
:10374000FFFFFFFFFFFFFFFFFFFFFFFFFFFFFFFF89
:10375000FFFFFFFFFFFFFFFFFFFFFFFFFFFFFFFF79
:10376000FB8DD60216035603560356035603560323
:103770005603560356035603560356035603560381
:103780005603560356035603560356035603560371
:10379000560356035603160316035703D8037A0439
:1037A0007B04BA14FEA6FFFFFFFFFFFFFFFFFFFF32
:1037B000FFFFFFFFFFFFFFFFFFFFFFFFFFFFFFFF19
:1037C000FFFFFFFFFFFFBD96BA0CBA04BA04BA04AC
:1037D000BA04BA04BA047A047A0C7D96FFFFFFFF9C
:1037E000FFFFFFFFFFFFFFFFFFFFFFFFFFFFFFFFE9
:1037F000FFFFFFFFFFFFFFFFFFFFFFFFFFFFFFFFD9
:10380000FFFFFFFFFFFFFFFFFFFFFFFFFFFFFFFFC8
:10381000FFFFFFFFFFFFFFFFFFFFFFFFFFFFFFFFB8
:10382000FFFFFFFFFFFFFFFFFFFFFFFFFFFFFFFFA8
:10383000FFFFFFFFFFFFFFFFFFFFFFFFFFFFFFFF98
:10384000FFFFFFFFFFFFFFFFFFFFFFFFFFFFFFFF88
:10385000FB95D6021603560356035603560356032A
:103860005603560356035603560356035603560390
:103870005603560356035603560356035603560380
:1038800056031603160397033904BA04BB04BB049A
:10389000BA04BA0C7D8EFFFFFFFFFFFFFFFFFFFFA3
:1038A000FFFFFFFFFFFFFFFFFFFFFFFFFFFFFFFF28
:1038B000FFFFFFFFFFFFBC5D7A04BA04BA04BA043D
:1038C000BA04BA04BA04BA047A04BC5DBFF7FFFFB5
:1038D000FFFFFFFFFFFFFFFFFFFFFFFFFFFFFFFFF8
:1038E000FFFFFFFFFFFFFFFFFFFFFFFFFFFFFFFFE8
:1038F000FFFFFFFFFFFFFFFFFFFFFFFFFFFFFFFFD8
:10390000FFFFFFFFFFFFFFFFFFFFFFFFFFFFFFFFC7
:10391000FFFFFFFFFFFFFFFFFFFFFFFFFFFFFFFFB7
:10392000FFFFFFFFFFFFFFFFFFFFFFFFFFFFFFFFA7
:10393000FFFFFFFFFFFFFFFFFFFFFFFFFFFFFFFF97
:103940003BA61603160356035603560356035603A7
:10395000560356035603560356035603560356039F
:1039600056035603560356035603560356031603CF
:10397000160357033904BA04BB04BB04BA04BA04DF
:10398000BA047A04FC65FFFFFFFFFFFFFFFFFFFFA4
:10399000FFFFFFFFFFFFFFFFFFFFFFFFFFFFFFFF37
:1039A000FFFFFFFFBFEF7B457A04BA04BA04BA04F5
:1039B000BA04BA04BA04BA047A04BB45BFE7FFFFED
:1039C000FFFFFFFFFFFFFFFFFFFFFFFFFFFFFFFF07
:1039D000FFFFFFFFFFFFFFFFFFFFFFFFFFFFFFFFF7
:1039E000FFFFFFFFFFFFFFFFFFFFFFFFFFFFFFFFE7
:1039F000FFFFFFFFFFFFFFFFFFFFFFFFFFFFFFFFD7
:103A0000FFFFFFFFFFFFFFFFFFFFFFFFFFFFFFFFC6
:103A1000FFFFFFFFFFFFFFFFFFFFFFFFFFFFFFFFB6
:103A2000FFFFFFFFFFFFFFFFFFFFFFFFFFFFFFFFA6
:103A3000BCB65613160356035603560356035603D5
:103A400056035603560356035603560356035603AE
:103A500056035603560356035603560316035703DD
:103A60003904BA04BB04BB04BA04BA04BA04BA04E5
:103A7000BA04BA043B2DBFE7FFFFFFFFFFFFFFFFC4
:103A8000FFFFFFFFFFFFFFFFFFFFFFFFFFFFFFFF46
:103A9000FFFFFFFF7ED73B35BA04BA04BA04BA046D
:103AA000BA04BA04BA04BA047A04BC55BFEFFFFFE3
:103AB000FFFFFFFFFFFFFFFFFFFFFFFFFFFFFFFF16
:103AC000FFFFFFFFFFFFFFFFFFFFFFFFFFFFFFFF06
:103AD000FFFFFFFFFFFFFFFFFFFFFFFFFFFFFFFFF6
:103AE000FFFFFFFFFFFFFFFFFFFFFFFFFFFFFFFFE6
:103AF000FFFFFFFFFFFFFFFFFFFFFFFFFFFFFFFFD6
:103B0000FFFFFFFFFFFFFFFFFFFFFFFFFFFFFFFFC5
:103B1000FFFFFFFFFFFFFFFFFFFFFFFFFFFFFFFFB5
:103B2000FDC69723D6025603560356035603560383
:103B300056035603560356035603560356035603BD
:103B40005603560356035603160356033804BA04A5
:103B5000BB04BB04BA04BA04BA04BA04BA04BA0473
:103B6000BA04BA04BA14BDA6FFFFFFFFFFFFFFFFB0
:103B7000FFFFFFFFFFFFFFFFFFFFFFFFFFFFFFFF55
:103B8000FFFFFFFFFEBEBB1C7A04BA04BA04BA04EE
:103B9000BA04BA04BA04BA047A04BC6DFFF7FFFF92
:103BA000FFFFFFFFFFFFFFFFFFFFFFFFFFFFFFFF25
:103BB000FFFFFFFFFFFFFFFFFFFFFFFFFFFFFFFF15
:103BC000FFFFFFFFFFFFFFFFFFFFFFFFFFFFFFFF05
:103BD000FFFFFFFFFFFFFFFFFFFFFFFFFFFFFFFFF5
:103BE000FFFFFFFFFFFFFFFFFFFFFFFFFFFFFFFFE5
:103BF000FFFFFFFFFFFFFFFFFFFFFFFFFFFFFFFFD5
:103C0000FFFFFFFFFFFFFFFFFFFFFFFFFFFFFFFFC4
:103C10007EDF3844D6025603560356035603560336
:103C200056035603560356035603560356035603CC
:103C300056035603560316039703BA04BB04BB048A
:103C4000BA04BA04BA04BA04BA04BA04BA04BA0484
:103C5000BA04BA04BA047C45BFEFFFFFFFFFFFFFC1
:103C6000FFFFFFFFFFFFFFFFFFFFFFFFFFFFFFFF64
:103C7000FFFFFFFFBD9EBA0CBA04BA04BA04BA042F
:103C8000BA04BA04BA04BA043904FB8DFFFFFFFF7B
:103C9000FFFFFFFFFFFFFFFFFFFFFFFFFFFFFFFF34
:103CA000FFFFFFFFFFFFFFFFFFFFFFFFFFFFFFFF24
:103CB000FFFFFFFFFFFFFFFFFFFFFFFFFFFFFFFF14
:103CC000FFFFFFFFFFFFFFFFFFFFFFFFFFFFFFFF04
:103CD000FFFFFFFFFFFFFFFFFFFFFFFFFFFFFFFFF4
:103CE000FFFFFFFFFFFFFFFFFFFFFFFFFFFFFFFFE4
:103CF000FFFFFFFFFFFFFFFFFFFFFFFFFFFFFFFFD4
:103D0000FFF73A6DD5025603560356035603560382
:103D100056035603560356035603560356035603DB
:103D2000560356031603D703BA04FB04BA04BA04B5
:103D3000BA04BA04BA04BA04BA04BA04BA04BA0493
:103D4000BA04BA04BA04BA0C7D8EFFFFFFFFFFFF6E
:103D5000FFFFFFFFFFFFFFFFFFFFFFFFFFFFFFFF73
:103D6000FFFFFFF7FC6D7A04BA04BA04BA04BA0480
:103D7000BA04BA04BB047A0438147CAEFFFFFFFF18
:103D8000FFFFFFFFFFFFFFFFFFFFFFFFFFFFFFFF43
:103D9000FFFFFFFFFFFFFFFFFFFFFFFFFFFFFFFF33
:103DA000FFFFFFFFFFFFFFFFFFFFFFFFFFFFFFFF23
:103DB000FFFFFFFFFFFFFFFFFFFFFFFFFFFFFFFF13
:103DC000FFFFFFFFFFFFFFFFFFFFFFFFFFFFFFFF03
:103DD000FFFFFFFFFFFFFFFFFFFFFFFFFFFFFFFFF3
:103DE000FFFFFFFFFFFFFFFFFFFFFFFFFFFFFFFFE3
:103DF000FFFFFB95160B1603560356035603560397
:103E000056035603560356035603560356035603EA
:103E100056031603D803BB04BB04BA04BA04BA049D
:103E2000BA04BA04BA04BA04BA04BA04BA04BA04A2
:103E3000BA04BA04BA04BA04FB243EC7FFFFFFFF6A
:103E4000FFFFFFFFFFFFFFFFFFFFFFFFFFFFFFFF82
:103E5000FFFF7ED73B357A04BA04BA04BA04BA0429
:103E6000BA04BB04BB04D803383C3EDFFFFFFFFFAE
:103E7000FFFFFFFFFFFFFFFFFFFFFFFFFFFFFFFF52
:103E8000FFFFFFFFFFFFFFFFFFFFFFFFFFFFFFFF42
:103E9000FFFFFFFFFFFFFFFFFFFFFFFFFFFFFFFF32
:103EA000FFFFFFFFFFFFFFFFFFFFFFFFFFFFFFFF22
:103EB000FFFFFFFFFFFFFFFFFFFFFFFFFFFFFFFF12
:103EC000FFFFFFFFFFFFFFFFFFFFFFFFFFFFFFFF02
:103ED000FFFFFFFFFFFFFFFFFFFFFFFFFFFFFFFFF2
:103EE000FFFFBDBE5723D6025603560356035603A3
:103EF00056035603560356035603560356035603FA
:103F00001603D803BB04BB04BA04BA04BA04BA0447
:103F1000BA04BA04BA04BA04BA04BA04BA04BA04B1
:103F2000BA04BA04BA04BA047A047C3D7ED7FFFF0F
:103F3000FFFFFFFFFFFFFFFFFFFFFFFFFFFFFFFF91
:103F4000FFFFBD9EBA0C7A04BA04BA04BA04BA04DC
:103F5000BB04BB0439041603F964FFFFFFFFFFFF36
:103F6000FFFFFFFFFFFFFFFFFFFFFFFFFFFFFFFF61
:103F7000FFFFFFFFFFFFFFFFFFFFFFFFFFFFFFFF51
:103F8000FFFFFFFFFFFFFFFFFFFFFFFFFFFFFFFF41
:103F9000FFFFFFFFFFFFFFFFFFFFFFFFFFFFFFFF31
:103FA000FFFFFFFFFFFFFFFFFFFFFFFFFFFFFFFF21
:103FB000FFFFFFFFFFFFFFFFFFFFFFFFFFFFFFFF11
:103FC000FFFFFFFFFFFFFFFFFFFFFFFFFFFFFFFF01
:103FD000FFFF7EE7784CD50256035603560356037F
:103FE0005603560356035603560356035603160349
:103FF000D803BB04BB04BA04BA04BA04BA04BA04B2
:10400000BA04BA04BA04BA04BA04BA04BA04BA04C0
:10401000BA04BA04BA04BA04BA047A04BB457ED717
:10402000FFFFFFFFFFFFFFFFFFFFFFFFFFFFFFFFA0
:10403000FFF7FC5D7A04BA04BA04BA04BA04FB04BC
:10404000BB047A045603160BFB95FFFFFFFFFFFF2F
:10405000FFFFFFFFFFFFFFFFFFFFFFFFFFFFFFFF70
:10406000FFFFFFFFFFFFFFFFFFFFFFFFFFFFFFFF60
:10407000FFFFFFFFFFFFFFFFFFFFFFFFFFFFFFFF50
:10408000FFFFFFFFFFFFFFFFFFFFFFFFFFFFFFFF40
:10409000FFFFFFFFFFFFFFFFFFFFFFFFFFFFFFFF30
:1040A000FFFFFFFFFFFFFFFFFFFFFFFFFFFFFFFF20
:1040B000FFFFFFFFFFFFFFFFFFFFFFFFFFFFFFFF10
:1040C000FFFFFFFFBB851603560356035603560337
:1040D0005603560356035603560356031603980316
:1040E000BB04BB04BA04BA04BA04BA04BA04BA04DE
:1040F000BA04BA04BA04BA04BA04BA04BA04BA04D0
:10410000BA04BA04BA04BA04BA04BA047A043B354D
:10411000FDA6FFF7FFFFFFFFFFFFFFFFFFFFFFFF12
:104120003EC7FB1C7A04BA04BA04BB04BB04BA043D
:1041300038045703D502D72B3DD7FFFFFFFFFFFF02
:10414000FFFFFFFFFFFFFFFFFFFFFFFFFFFFFFFF7F
:10415000FFFFFFFFFFFFFFFFFFFFFFFFFFFFFFFF6F
:10416000FFFFFFFFFFFFFFFFFFFFFFFFFFFFFFFF5F
:10417000FFFFFFFFFFFFFFFFFFFFFFFFFFFFFFFF4F
:10418000FFFFFFFFFFFFFFFFFFFFFFFFFFFFFFFF3F
:10419000FFFFFFFFFFFFFFFFFFFFFFFFFFFFFFFF2F
:1041A000FFFFFFFFFFFFFFFFFFFFFFFFFFFFFFFF1F
:1041B000FFFFFFFFFDC6D723D60256035603560363
:1041C0005603560356035603560316039703BA04C1
:1041D000FB04BA04BA04BA04BA04BA04BA04BA04AE
:1041E000BA04BA04BA04BA04BA04BA04BA04BA04DF
:1041F000BA04BA04BA04BA04BA04BA04BA047A040F
:10420000BA14FC653EBFFFFFFFFFFFFFFFFFFFF794
:10421000FD6DBA04BB04BB04BB04BA043A049703A3
:1042200016031603D6023A65FFFFFFFFFFFFFFFFED
:10423000FFFFFFFFFFFFFFFFFFFFFFFFFFFFFFFF8E
:10424000FFFFFFFFFFFFFFFFFFFFFFFFFFFFFFFF7E
:10425000FFFFFFFFFFFFFFFFFFFFFFFFFFFFFFFF6E
:10426000FFFFFFFFFFFFFFFFFFFFFFFFFFFFFFFF5E
:10427000FFFFFFFFFFFFFFFFFFFFFFFFFFFFFFFF4E
:10428000FFFFFFFFFFFFFFFFFFFFFFFFFFFFFFFF3E
:10429000FFFFFFFFFFFFFFFFFFFFFFFFFFFFFFFF2E
:1042A000FFFFFFFFFFFF3A65D60256035603560392
:1042B0005603560356035603160356037A04FB04AB
:1042C000BA04BA04BA04BA04BA04BA04BA04BA04FE
:1042D000BA04BA04BA04BA04BA04BA04BA04BA04EE
:1042E000BA04BA04BA04BA04BA04BA04BA04BA04DE
:1042F0007A04BA04FB1CBC557D8E3EBFBFF7FEB6E8
:10430000BB0C7B04BB047A04D80397035603560303
:1043100056031603571BFDC6FFFFFFFFFFFFFFFFFE
:10432000FFFFFFFFFFFFFFFFFFFFFFFFFFFFFFFF9D
:10433000FFFFFFFFFFFFFFFFFFFFFFFFFFFFFFFF8D
:10434000FFFFFFFFFFFFFFFFFFFFFFFFFFFFFFFF7D
:10435000FFFFFFFFFFFFFFFFFFFFFFFFFFFFFFFF6D
:10436000FFFFFFFFFFFFFFFFFFFFFFFFFFFFFFFF5D
:10437000FFFFFFFFFFFFFFFFFFFFFFFFFFFFFFFF4D
:10438000FFFFFFFFFFFFFFFFFFFFFFFFFFFFFFFF3D
:10439000FFFFFFFFFFFFBDBE971B1603560356032B
:1043A00056035603560356031603D803FB04BA04F8
:1043B000BA04BA04BA04BA04BA04BA04BA04BA040D
:1043C000BA04BA04BA04BA04BA04BA04BA04BA04FD
:1043D000BA04BA04BA04BA04BA04BA04BA04BA04ED
:1043E000BA04BA047A04BA047A0CFB1C3B3579246B
:1043F0009703970357035603560356035603560372
:104400005603D602FA64FFFFFFFFFFFFFFFFFFFF27
:10441000FFFFFFFFFFFFFFFFFFFFFFFFFFFFFFFFAC
:10442000FFFFFFFFFFFFFFFFFFFFFFFFFFFFFFFF9C
:10443000FFFFFFFFFFFFFFFFFFFFFFFFFFFFFFFF8C
:10444000FFFFFFFFFFFFFFFFFFFFFFFFFFFFFFFF7C
:10445000FFFFFFFFFFFFFFFFFFFFFFFFFFFFFFFF6C
:10446000FFFFFFFFFFFFFFFFFFFFFFFFFFFFFFFF5C
:10447000FFFFFFFFFFFFFFFFFFFFFFFFFFFFFFFF4C
:10448000FFFFFFFFFFFFFFFFFA641603560356030B
:1044900056035603560356039703BA04BB04BA04E3
:1044A000BA04BA04BA04BA04BA04BA04BA04BA041C
:1044B000BA04BA04BA04BA04BA04BA04BA04BA040C
:1044C000BA04BA04BA04BA04BA04BA04BA04BA04FC
:1044D000BA04BA04BA04BA04BA04BB04D803160373
:1044E0001603560356035603560356035603560344
:1044F0001603561BFDC6FFFFFFFFFFFFFFFFFFFF79
:10450000FFFFFFFFFFFFFFFFFFFFFFFFFFFFFFFFBB
:10451000FFFFFFFFFFFFFFFFFFFFFFFFFFFFFFFFAB
:10452000FFFFFFFFFFFFFFFFFFFFFFFFFFFFFFFF9B
:10453000FFFFFFFFFFFFFFFFFFFFFFFFFFFFFFFF8B
:10454000FFFFFFFFFFFFFFFFFFFFFFFFFFFFFFFF7B
:10455000FFFFFFFFFFFFFFFFFFFFFFFFFFFFFFFF6B
:10456000FFFFFFFFFFFFFFFFFFFFFFFFFFFFFFFF5B
:10457000FFFFFFFFFFFFFFFF3ED7D72B16035603BA
:1045800056035603560316033804BB04BA04BA0490
:10459000BA04BA04BA04BA04BA04BA04BA04BA042B
:1045A000BA04BA04BA04BA04BA04BA04BA04BA041B
:1045B000BA04BA04BA04BA04BA04BA04BA04BA040B
:1045C000BA04BA04BA04BA04BB047A045603160344
:1045D0005603560356035603560356035603560313
:1045E000D6023A75FFFFFFFFFFFFFFFFFFFFFFFF50
:1045F000FFFFFFFFFFFFFFFFFFFFFFFFFFFFFFFFCB
:10460000FFFFFFFFFFFFFFFFFFFFFFFFFFFFFFFFBA
:10461000FFFFFFFFFFFFFFFFFFFFFFFFFFFFFFFFAA
:10462000FFFFFFFFFFFFFFFFFFFFFFFFFFFFFFFF9A
:10463000FFFFFFFFFFFFFFFFFFFFFFFFFFFFFFFF8A
:10464000FFFFFFFFFFFFFFFFFFFFFFFFFFFFFFFF7A
:10465000FFFFFFFFFFFFFFFFFFFFFFFFFFFFFFFF6A
:10466000FFFFFFFFFFFFFFFFFFFFFB95160B56034A
:104670005603560356039703BA04BB04BA04BA049C
:10468000BA04BA04BA04BA04BA04BA04BA04BA043A
:10469000BA04BA04BA04BA04BA04BA04BA04BA042A
:1046A000BA04BA04BA04BA04BA04BA04BA04BA041A
:1046B000BA04BA04BA04BB04BA0497031603560337
:1046C0005603560356035603560356035603160362
:1046D00038347EE7FFFFFFFFFFFFFFFFFFFFFFFF15
:1046E000FFFFFFFFFFFFFFFFFFFFFFFFFFFFFFFFDA
:1046F000FFFFFFFFFFFFFFFFFFFFFFFFFFFFFFFFCA
:10470000FFFFFFFFFFFFFFFFFFFFFFFFFFFFFFFFB9
:10471000FFFFFFFFFFFFFFFFFFFFFFFFFFFFFFFFA9
:10472000FFFFFFFFFFFFFFFFFFFFFFFFFFFFFFFF99
:10473000FFFFFFFFFFFFFFFFFFFFFFFFFFFFFFFF89
:10474000FFFFFFFFFFFFFFFFFFFFFFFFFFFFFFFF79
:10475000FFFFFFFFFFFFFFFFFFFFFFF7B954D60288
:10476000560356031603D803BB04BA04BA04BA04AA
:10477000BA04BA04BA04BA04BA04BA04BA04BA0449
:10478000BA04BA04BA04BA04BA04BA04BA04BA0439
:10479000BA04BA04BA04BA04BA04BA04BA04BA0429
:1047A000BA04BA04BB04BA049703160356035603AB
:1047B0005603560356035603560356031603560B69
:1047C0007CB6FFFFFFFFFFFFFFFFFFFFFFFFFFFFC5
:1047D000FFFFFFFFFFFFFFFFFFFFFFFFFFFFFFFFE9
:1047E000FFFFFFFFFFFFFFFFFFFFFFFFFFFFFFFFD9
:1047F000FFFFFFFFFFFFFFFFFFFFFFFFFFFFFFFFC9
:10480000FFFFFFFFFFFFFFFFFFFFFFFFFFFFFFFFB8
:10481000FFFFFFFFFFFFFFFFFFFFFFFFFFFFFFFFA8
:10482000FFFFFFFFFFFFFFFFFFFFFFFFFFFFFFFF98
:10483000FFFFFFFFFFFFFFFFFFFFFFFFFFFFFFFF88
:10484000FFFFFFFFFFFFFFFFFFFFFFFF3EDFD7334D
:104850001603560357037A04BB04BA04BA04BA0415
:10486000BA04BA04BA04BA04BA04BA04BA04BA0458
:10487000BA04BA04BA04BA04BA04BA04BA04BA0448
:10488000BA04BA04BA04BA04BA04BA04BA04BA0438
:10489000BA04BB04BA04980316035603560356031E
:1048A000560356035603560356035603D602BB8DD2
:1048B000FFFFFFFFFFFFFFFFFFFFFFFFFFFFFFFF08
:1048C000FFFFFFFFFFFFFFFFFFFFFFFFFFFFFFFFF8
:1048D000FFFFFFFFFFFFFFFFFFFFFFFFFFFFFFFFE8
:1048E000FFFFFFFFFFFFFFFFFFFFFFFFFFFFFFFFD8
:1048F000FFFFFFFFFFFFFFFFFFFFFFFFFFFFFFFFC8
:10490000FFFFFFFFFFFFFFFFFFFFFFFFFFFFFFFFB7
:10491000FFFFFFFFFFFFFFFFFFFFFFFFFFFFFFFFA7
:10492000FFFFFFFFFFFFFFFFFFFFFFFFFFFFFFFF97
:10493000FFFFFFFFFFFFFFFFFFFFFFFFFFFFBCBE0B
:10494000971BD5029703BB04BB04BA04BA04BA048C
:10495000BA04BA04BA04BA04BA04BA04BA04BA0467
:10496000BA04BA04BA04BA04BA04BA04BA04BA0457
:10497000BA04BA04BA04BA04BA04BA04BA04BA0447
:10498000BB04BA0498031603560356035603560392
:1049900056035603560356035603D6023A65FFF7ED
:1049A000FFFFFFFFFFFFFFFFFFFFFFFFFFFFFFFF17
:1049B000FFFFFFFFFFFFFFFFFFFFFFFFFFFFFFFF07
:1049C000FFFFFFFFFFFFFFFFFFFFFFFFFFFFFFFFF7
:1049D000FFFFFFFFFFFFFFFFFFFFFFFFFFFFFFFFE7
:1049E000FFFFFFFFFFFFFFFFFFFFFFFFFFFFFFFFD7
:1049F000FFFFFFFFFFFFFFFFFFFFFFFFFFFFFFFFC7
:104A0000FFFFFFFFFFFFFFFFFFFFFFFFFFFFFFFFB6
:104A1000FFFFFFFFFFFFFFFFFFFFFFFFFFFFFFFFA6
:104A2000FFFFFFFFFFFFFFFFFFFFFFFFFFFFFFFF96
:104A30007CAE56139803BB04BA04BA04BA04BA0491
:104A4000BA04BA04BA04BA04BA04BA04BA04BA0476
:104A5000BA04BA04BA04BA04BA04BA04BA04BA0466
:104A6000BA04BA04BA04BA04BA04BA04BB04FB0414
:104A70007A04570316035603560356035603560388
:104A80005603560356031603D602B94CBEE7FFFF82
:104A9000FFFFFFFFFFFFFFFFFFFFFFFFFFFFFFFF26
:104AA000FFFFFFFFFFFFFFFFFFFFFFFFFFFFFFFF16
:104AB000FFFFFFFFFFFFFFFFFFFFFFFFFFFFFFFF06
:104AC000FFFFFFFFFFFFFFFFFFFFFFFFFFFFFFFFF6
:104AD000FFFFFFFFFFFFFFFFFFFFFFFFFFFFFFFFE6
:104AE000FFFFFFFFFFFFFFFFFFFFFFFFFFFFFFFFD6
:104AF000FFFFFFFFFFFFFFFFFFFFFFFFFFFFFFFFC6
:104B0000FFFFFFFFFFFFFFFFFFFFFFFFFFFFFFFFB5
:104B1000FFFFFFFFFFFFFFFFFFFFFFFFFFFFFFFFA5
:104B2000FFFF3CA6791C7A04BA04BA04BA04BA049A
:104B3000BA04BA04BA04BA04BA04BA04BA04BA0485
:104B4000BA04BA04BA04BA04BA04BA04BA04BA0475
:104B5000BA04BA04BA04BA04BB04FB04BB043904A3
:104B600056031603560356035603560356035603BD
:104B70005603560316039602B94C7EDFFFFFFFFF74
:104B8000FFFFFFFFFFFFFFFFFFFFFFFFFFFFFFFF35
:104B9000FFFFFFFFFFFFFFFFFFFFFFFFFFFFFFFF25
:104BA000FFFFFFFFFFFFFFFFFFFFFFFFFFFFFFFF15
:104BB000FFFFFFFFFFFFFFFFFFFFFFFFFFFFFFFF05
:104BC000FFFFFFFFFFFFFFFFFFFFFFFFFFFFFFFFF5
:104BD000FFFFFFFFFFFFFFFFFFFFFFFFFFFFFFFFE5
:104BE000FFFFFFFFFFFFFFFFFFFFFFFFFFFFFFFFD5
:104BF000FFFFFFFFFFFFFFFFFFFFFFFFFFFFFFFFC5
:104C0000FFFFFFFFFFFFFFFFFFFFFFFFFFFFFFFFB4
:104C1000FFFFFFFFFDAEFB247A04BA04BA04BA0416
:104C2000BA04BA04BA04BA04BA04BA04BA04BA0494
:104C3000BA04BA04BA04BA04BA04BA04BA04BA0484
:104C4000BA04BA04BB04BB04BB047A04970316037A
:104C500016035603560356035603560356035603CC
:104C600056031603D602F95C7EE7FFFFFFFFFFFF46
:104C7000FFFFFFFFFFFFFFFFFFFFFFFFFFFFFFFF44
:104C8000FFFFFFFFFFFFFFFFFFFFFFFFFFFFFFFF34
:104C9000FFFFFFFFFFFFFFFFFFFFFFFFFFFFFFFF24
:104CA000FFFFFFFFFFFFFFFFFFFFFFFFFFFFFFFF14
:104CB000FFFFFFFFFFFFFFFFFFFFFFFFFFFFFFFF04
:104CC000FFFFFFFFFFFFFFFFFFFFFFFFFFFFFFFFF4
:104CD000FFFFFFFFFFFFFFFFFFFFFFFFFFFFFFFFE4
:104CE000FFFFFFFFFFFFFFFFFFFFFFFFFFFFFFFFD4
:104CF000FFFFFFFFFFFFFFFFFFFFFFFFFFFFFFFFC4
:104D0000FFFFFFFFFFFF3EBF3B357A04BA04BB0441
:104D1000BA04BA04BA04BA04BA04BA04BA04BA04A3
:104D2000BA04BA04BA04BA04BA04BA04BA04BB0492
:104D3000BB04BB04BB047A04D80357031603160351
:104D4000560356035603560356035603560356039B
:104D5000D602160B7B7DBFEFFFFFFFFFFFFFFFFFBC
:104D6000FFFFFFFFFFFFFFFFFFFFFFFFFFFFFFFF53
:104D7000FFFFFFFFFFFFFFFFFFFFFFFFFFFFFFFF43
:104D8000FFFFFFFFFFFFFFFFFFFFFFFFFFFFFFFF33
:104D9000FFFFFFFFFFFFFFFFFFFFFFFFFFFFFFFF23
:104DA000FFFFFFFFFFFFFFFFFFFFFFFFFFFFFFFF13
:104DB000FFFFFFFFFFFFFFFFFFFFFFFFFFFFFFFF03
:104DC000FFFFFFFFFFFFFFFFFFFFFFFFFFFFFFFFF3
:104DD000FFFFFFFFFFFFFFFFFFFFFFFFFFFFFFFFE3
:104DE000FFFFFFFFFFFFFFFFFFFFFFFFFFFFFFFFD3
:104DF000FFFFFFFFFFFFFFFF7FDFFC657A047A0400
:104E0000BB04BB04BB04BB04BB04BA04BA04BA04AD
:104E1000BA04BA04BB04BB04BB04BB04BB04BB049C
:104E2000BB047904D80356031603560356035603EE
:104E30005603560356035603560356031603D6026B
:104E4000D7233CA6FFF7FFFFFFFFFFFFFFFFFFFF9A
:104E5000FFFFFFFFFFFFFFFFFFFFFFFFFFFFFFFF62
:104E6000FFFFFFFFFFFFFFFFFFFFFFFFFFFFFFFF52
:104E7000FFFFFFFFFFFFFFFFFFFFFFFFFFFFFFFF42
:104E8000FFFFFFFFFFFFFFFFFFFFFFFFFFFFFFFF32
:104E9000FFFFFFFFFFFFFFFFFFFFFFFFFFFFFFFF22
:104EA000FFFFFFFFFFFFFFFFFFFFFFFFFFFFFFFF12
:104EB000FFFFFFFFFFFFFFFFFFFFFFFFFFFFFFFF02
:104EC000FFFFFFFFFFFFFFFFFFFFFFFFFFFFFFFFF2
:104ED000FFFFFFFFFFFFFFFFFFFFFFFFFFFFFFFFE2
:104EE000FFFFFFFFFFFFFFFFFFFFFFF77D9E7A241D
:104EF000D8033904BB04BB04BB04BB04FB04BB04E0
:104F0000BB04BB04BB04BB04BB04BA047A04D803CF
:104F100097035603160356035603560356035603C8
:104F200056035603560356031603D602160BF95CB6
:104F30003ED7FFFFFFFFFFFFFFFFFFFFFFFFFFFF6A
:104F4000FFFFFFFFFFFFFFFFFFFFFFFFFFFFFFFF71
:104F5000FFFFFFFFFFFFFFFFFFFFFFFFFFFFFFFF61
:104F6000FFFFFFFFFFFFFFFFFFFFFFFFFFFFFFFF51
:104F7000FFFFFFFFFFFFFFFFFFFFFFFFFFFFFFFF41
:104F8000FFFFFFFFFFFFFFFFFFFFFFFFFFFFFFFF31
:104F9000FFFFFFFFFFFFFFFFFFFFFFFFFFFFFFFF21
:104FA000FFFFFFFFFFFFFFFFFFFFFFFFFFFFFFFF11
:104FB000FFFFFFFFFFFFFFFFFFFFFFFFFFFFFFFF01
:104FC000FFFFFFFFFFFFFFFFFFFFFFFFFFFFFFFFF1
:104FD000FFFFFFFFFFFFFFFFFFFFFFFFFFFF3DD7CB
:104FE000BA7DD71B560397033904390439043904B1
:104FF00039043904D903D8039703970356031603DA
:1050000056035603560356035603560356035603D8
:10501000560356031603D6021603794C7CAEBFEF37
:10502000FFFFFFFFFFFFFFFFFFFFFFFFFFFFFFFF90
:10503000FFFFFFFFFFFFFFFFFFFFFFFFFFFFFFFF80
:10504000FFFFFFFFFFFFFFFFFFFFFFFFFFFFFFFF70
:10505000FFFFFFFFFFFFFFFFFFFFFFFFFFFFFFFF60
:10506000FFFFFFFFFFFFFFFFFFFFFFFFFFFFFFFF50
:10507000FFFFFFFFFFFFFFFFFFFFFFFFFFFFFFFF40
:10508000FFFFFFFFFFFFFFFFFFFFFFFFFFFFFFFF30
:10509000FFFFFFFFFFFFFFFFFFFFFFFFFFFFFFFF20
:1050A000FFFFFFFFFFFFFFFFFFFFFFFFFFFFFFFF10
:1050B000FFFFFFFFFFFFFFFFFFFFFFFFFFFFFFFF00
:1050C000FFFFFFFFFFFFFFFFFFFFFFFFFFFFFFFFF0
:1050D000FFFF3EDF7A75971BD502D6021603160333
:1050E0001603160316031603160316035603560378
:1050F0005603560356035603560356035603160328
:105100001603D602560B79447DAE7FEFFFFFFFFFFB
:10511000FFFFFFFFFFFFFFFFFFFFFFFFFFFFFFFF9F
:10512000FFFFFFFFFFFFFFFFFFFFFFFFFFFFFFFF8F
:10513000FFFFFFFFFFFFFFFFFFFFFFFFFFFFFFFF7F
:10514000FFFFFFFFFFFFFFFFFFFFFFFFFFFFFFFF6F
:10515000FFFFFFFFFFFFFFFFFFFFFFFFFFFFFFFF5F
:10516000FFFFFFFFFFFFFFFFFFFFFFFFFFFFFFFF4F
:10517000FFFFFFFFFFFFFFFFFFFFFFFFFFFFFFFF3F
:10518000FFFFFFFFFFFFFFFFFFFFFFFFFFFFFFFF2F
:10519000FFFFFFFFFFFFFFFFFFFFFFFFFFFFFFFF1F
:1051A000FFFFFFFFFFFFFFFFFFFFFFFFFFFFFFFF0F
:1051B000FFFFFFFFFFFFFFFFFFFFFFFFFFFFFFFFFF
:1051C000FFFFFFFFFFFF7EDFFC95B954971B160B17
:1051D0001603160316031603160316031603160307
:1051E00016031603160316031603160316035613A7
:1051F000D72B7A6DFDC6BFEFFFFFFFFFFFFFFFFF5D
:10520000FFFFFFFFFFFFFFFFFFFFFFFFFFFFFFFFAE
:10521000FFFFFFFFFFFFFFFFFFFFFFFFFFFFFFFF9E
:10522000FFFFFFFFFFFFFFFFFFFFFFFFFFFFFFFF8E
:10523000FFFFFFFFFFFFFFFFFFFFFFFFFFFFFFFF7E
:10524000FFFFFFFFFFFFFFFFFFFFFFFFFFFFFFFF6E
:10525000FFFFFFFFFFFFFFFFFFFFFFFFFFFFFFFF5E
:10526000FFFFFFFFFFFFFFFFFFFFFFFFFFFFFFFF4E
:10527000FFFFFFFFFFFFFFFFFFFFFFFFFFFFFFFF3E
:10528000FFFFFFFFFFFFFFFFFFFFFFFFFFFFFFFF2E
:10529000FFFFFFFFFFFFFFFFFFFFFFFFFFFFFFFF1E
:1052A000FFFFFFFFFFFFFFFFFFFFFFFFFFFFFFFF0E
:1052B000FFFFFFFFFFFFFFFFFFFFFFFF7EDFFC9D04
:1052C0003A657844D72B971B5713560B560B560B42
:1052D000560B56135713D72B383CB94C7B7DBDBEAC
:1052E000BFF7FFFFFFFFFFFFFFFFFFFFFFFFFFFF16
:1052F000FFFFFFFFFFFFFFFFFFFFFFFFFFFFFFFFBE
:10530000FFFFFFFFFFFFFFFFFFFFFFFFFFFFFFFFAD
:10531000FFFFFFFFFFFFFFFFFFFFFFFFFFFFFFFF9D
:10532000FFFFFFFFFFFFFFFFFFFFFFFFFFFFFFFF8D
:10533000FFFFFFFFFFFFFFFFFFFFFFFFFFFFFFFF7D
:10534000FFFFFFFFFFFFFFFFFFFFFFFFFFFFFFFF6D
:10535000FFFFFFFFFFFFFFFFFFFFFFFFFFFFFFFF5D
:10536000FFFFFFFFFFFFFFFFFFFFFFFFFFFFFFFF4D
:10537000FFFFFFFFFFFFFFFFFFFFFFFFFFFFFFFF3D
:10538000FFFFFFFFFFFFFFFFFFFFFFFFFFFFFFFF2D
:10539000FFFFFFFFFFFFFFFFFFFFFFFFFFFFFFFF1D
:1053A000FFFFFFFFFFFFFFFFFFFFFFFFFFFFFFFF0D
:1053B000FFFFBFF73EDFFDC6BDBE7CAE3CA63CA6F0
:1053C0007CA67CB6BDBE3ECF7EEFFFFFFFFFFFFF9A
:1053D000FFFFFFFFFFFFFFFFFFFFFFFFFFFFFFFFDD
:1053E000FFFFFFFFFFFFFFFFFFFFFFFFFFFFFFFFCD
:1053F000FFFFFFFFFFFFFFFFFFFFFFFFFFFFFFFFBD
:10540000FFFFFFFFFFFFFFFFFFFFFFFFFFFFFFFFAC
:105BC000BEF7BADEBADEBADEBADEBADEBADEBADEF8
:105BD000BADEBEF7FFFF37C6308C308C34A57DEFC0
:105BE000FFFFFFFFFFFFFFFFFFFFFFFFFFFFFFFFC5
:105BF000FFFFFFFFFFFFFFFFFFFFFFFFFFFFFFFFB5
:105C0000FFFFFFFFFFFFFFFFFFFFFFFFFFFFFFFFA4
:105C1000FFFFFFFFFFFFFFFF7DEFBAD6BADEBADE60
:105C2000BADEBADEBADEBADEFBE6BEF7FFFFFFFF82
:105C3000FFFFFFFFFFFFFFFFFFFFFFFFFFFFFFFF74
:105C4000FFFFFFFFFFFFFFFFFFFFFFFFFFFFFFFF64
:105C5000FFFFFFFFFFFFFFFFFFFFFFFFFFFFFFFF54
:105C6000FFFFFFFFFFFFFFFFFFFFFFFFFFFF38CE3C
:105C70007194308CB29C7DEFFFFFFFFFFFFFFFFFB1
:105C8000FFFFFFFFFFFFFFFFFFFFFFFFFFFFFFFF24
:105C9000FFFFFFFFFFFFFFFFFFFFFFFFFFFFFFFF14
:105CA000FFFFFFFFFFFFFFFFFFFFFFFF3CE7708CE1
:105CB00086410431042904290429042904290329DB
:105CC0004531F7BDFFFFCF8300080008C741FBDE69
:105CD000FFFFFFFFFFFFFFFFFFFFFFFFFFFFFFFFD4
:105CE000FFFFFFFFFFFFFFFFFFFFFFFFFFFFFFFFC4
:105CF000FFFFFFFFFFFFFFFFFFFFFFFFFFFFFFFFB4
:105D0000FFFFFFFFFFFFFFFF33A582204531443136
:105D100004290429042904290429C749F39CBEF74E
:105D2000FFFFFFFFFFFFFFFFFFFFFFFFFFFFFFFF83
:105D3000FFFFFFFFFFFFFFFFFFFFFFFFFFFFFFFF73
:105D4000FFFFFFFFFFFFFFFFFFFFFFFFFFFFFFFF63
:105D5000FFFFFFFFFFFFFFFFFFFFFFFFFFFFB2940B
:105D6000411800084531FBDEFFFFFFFFFFFFFFFF8B
:105D7000FFFFFFFFFFFFFFFFFFFFFFFFFFFFFFFF33
:105D8000FFFFFFFFFFFFFFFFFFFFFFFFFFFFFFFF23
:105D9000FFFFFFFFFFFFFFFFFFFF79D6C7410008AE
:105DA0008118811840100118411841184118000845
:105DB0008218B6B5FFFFCF8300080000C741FBDEA5
:105DC000FFFFFFFFFFFFFFFFFFFFFFFFFFFFFFFFE3
:105DD000FFFFFFFFFFFFFFFFFFFFFFFFFFFFFFFFD3
:105DE000FFFFFFFFFFFFFFFFFFFFFFFFFFFFFFFFC3
:105DF000FFFFFFFFFFFFFFFFF3A44010C220C22000
:105E00004118011801184010411841184018CB6280
:105E1000FBE6FFFFFFFFFFFFFFFFFFFFFFFFFFFFAF
:105E2000FFFFFFFFFFFFFFFFFFFFFFFFFFFFFFFF82
:105E3000FFFFFFFFFFFFFFFFFFFFFFFFFFFFFFFF72
:105E4000FFFFFFFFFFFFFFFFFFFFFFFFFFFF71945B
:105E5000401000080429FBDEFFFFFFFFFFFFFFFFEC
:105E6000FFFFFFFFFFFFFFFFFFFFFFFFFFFFFFFF42
:105E7000FFFFFFFFFFFFFFFFFFFFFFFFFFFFFFFF32
:105E8000FFFFFFFFFFFFFFFF3CE707420008C220C4
:105E900082184531084A084A084A084A084A074A07
:105EA000485238C6FFFFF39CC63986390C6B3CE775
:105EB000FFFFFFFFFFFFFFFFFFFFFFFFFFFFFFFFF2
:105EC000FFFFFFFFFFFFFFFFFFFFFFFFFFFFFFFFE2
:105ED000FFFFFFFFFFFFFFFFFFFFFFFFFFFFFFFFD2
:105EE000FFFFFFFFFFFFFFFFF3A44110C3200329C3
:105EF000C741084A084A074A04298218C2200010EC
:105F0000CB62FFF7FFFFFFFFFFFFFFFFFFFFFFFF7A
:105F1000FFFFFFFFFFFFFFFFFFFFFFFFFFFFFFFF91
:105F2000FFFFFFFFFFFFFFFFFFFFFFFFFFFFFFFF81
:105F3000FFFFFFFFFFFFFFFFFFFFFFFFFFFF34AD8E
:105F4000074AC6398A5A3CE7FFFFFFFFFFFFFFFF02
:105F5000FFFFFFFFFFFFFFFFFFFFFFFFFFFFFFFF51
:105F6000FFFFFFFFFFFFFFFFFFFFFFFFFFFFFFFF41
:105F7000FFFFFFFFFFFFFFFFB29C00108220811890
:105F8000CB62BADEBEF77DEF7DEF7DEF7DEF7DEF7B
:105F90007DEFBEF7FFFFFFFFFFF7BEF7BEF7FFFF86
:105FA000FFFFFFFFFFFFFFFFFFFFFFFFFFFFFFFF01
:105FB000FFFFFFFFFFFFFFFFFFFFFFFFFFFFFFFFF1
:105FC000FFFFFFFFFFFFFFFFFFFFFFFFFFFFFFFFE1
:105FD000FFFFFFFFFFFFFFFFF3A441108218853989
:105FE00079CEBEFF7DEF7EEF78CE495242188220F7
:105FF000821875ADFFFFFFFFFFFFFFFFFFFFFFFFF1
:10600000FFFFFFFFFFFFFFFFFFFFFFFFFFFFFFFFA0
:10601000FFFFFFFFFFFFFFFFFFFFFFFFFFFFFFFF90
:10602000FFFFFFFFFFFFFFFFFFFFFFFFFFFFFFFF80
:10603000FFFFBFF7BEF7FFFFFFFFFFFFFFFFFFFF01
:10604000FFFFFFFFFFFFFFFFFFFFFFFFFFFFFFFF60
:10605000FFFFFFFFFFFFFFFFFFFFFFFFFFFFFFFF50
:10606000FFFFFFFFFFFFFFFF8A5A40108220C7415A
:10607000FBDEFFFFFFFFFFFFFFFFFFFFFFFFFFFF55
:10608000FFFFFFFFFFFFBAD6F7BDFBDEBEF7FFFF46
:10609000FFFFFFFFFFFF3CE7F6BDF39CF39CF39C83
:1060A000F39CB39CF29CB19479CEFFFFFFFFFFFFFE
:1060B000FEFF79CE34ADB39CF39CF39CF39CF39C30
:1060C000B294F3A47DEFFFFFF3A441108218863948
:1060D000FBDEFFFFFFFFFFFFFFFF38CE043181181B
:1060E00040188E7BFFFFFFFFFFFFFFFFBAD634ADE6
:1060F000F39CF39CF39C75ADBAD6FFFFFFFFFFFF47
:1061000079CEB194719475AD7DEFFFFFFFFFFFFF76
:10611000FFFF7EF734B57194B19438C6FFFFFBDE04
:10612000F7C5FADEBEF7FFFFFFFFFFFFFFFF7EEFC1
:10613000F7C5F3A4B29CF39CF39CB194B6B5FFFFF2
:10614000FFFFFFFF3CEFB6B5F39CF39CF39CF39C81
:10615000B6B57DEFFFFFFFFF8639811841188E7BB2
:10616000FFFFFFFFFFFFFFFFFFFFFFFFFFFFFFFF3F
:10617000FFFFFFFFBEF7CF8300108539CF7B7DEF98
:10618000FFFFFFFF37C6494A8220000800100010B9
:106190000010401040100000CF83BEF7FFFF7DEFDE
:1061A0002F844431411800080008000800104118ED
:1061B0000000C32079CEFFFFF3A4411082184539B7
:1061C000BADEFFFFFFFFFFFFFFFFFFFFCA624118BC
:1061D0004118CB62FFFFFFFFBEF7B2944531411873
:1061E00000100008001081188639F3A4FFFFFFFF9C
:1061F00034A500080000822079CEFFFFFFFFFFFFDB
:10620000FFFF79CEC32000004008B29CFFFF7194CD
:10621000822085314D737DEFFFFFFFFFFBDECB62F8
:106220008220401000080010000800008E7BBEF79E
:10623000FFFFB9D6495A82184010000800084110E3
:1062400082188A5ABAD6FFFF453941208118308C0E
:10625000FFFFFFFFFFFFFFFFFFFFFFFFFFFFFFFF4E
:10626000FFFFFFFFBEF7CF8B00080000C739FBDE42
:10627000FFFFBADE86390008001000080010001089
:1062800000108118C2200010CF8BBEF7FFFFCF7B1C
